:020000040800F2
:10000000B0D70020AD0100080D7E0008AD5B0008F0
:10001000197A00085112000845A1000800000000EC
:10002000000000000000000000000000418B0008FC
:100030009121000800000000757E0008459100082D
:10004000C7010008C7010008C7010008C701000870
:10005000C7010008C7010008B1220008DD2200081E
:10006000C7010008F1220008C7010008C701000805
:10007000C7010008C7010008C7010008C701000840
:10008000C70100083D1F0008750A000800000000B5
:100090000000000000000000000000000523000830
:1000A000C7010008C7010008C7010008C701000810
:1000B000C7010008C701000885930008C7010008B0
:1000C000C7010008C7010008C7010008C7010008F0
:1000D000C7010008E1A00008F1A00008000000002E
:1000E000C5220008C7010008C70100080000000081
:1000F000000000000000000000000000C701000830
:1001000000000000C7010008C7010008C70100087F
:1001100000000000000000000000000000000000DF
:10012000551F0008651F0008C7010008C701000827
:10013000C7010008000000000000000000000000EF
:10014000000000000000000000000000C7010008DF
:10015000C7010008751F0008851F000801A10008DD
:10016000C7010008C70100080000000000000000EF
:10017000000000000000000000000000000000007F
:1001800000000000C701000800000000000000009F
:10019000C70100082D890008DFF80CD000F078FBBB
:1001A000004800479DB80008B0D7002006488047A7
:1001B00006480047FEE7FEE7FEE7FEE7FEE7FEE74C
:1001C000FEE7FEE7FEE7FEE721930008990100083D
:1001D0002DE9F05F0546002092469B46884606467C
:1001E000814640241BE0284641464746224600F00F
:1001F00020F853465A46C01A914110D3114618466A
:10020000224600F027FA2D1A67EB01084F462246D6
:100210000120002100F01EFA17EB00094E41201EBC
:10022000A4F10104DFDC484631462A464346BDE8D6
:10023000F09F202A04DB203A21FA02F000217047C7
:1002400021FA02F3D040C2F120029140084319463E
:100250007047D2B201E000F8012B491EFBD2704773
:100260000022F6E710B513460A4604461946FFF782
:10027000F0FF204610BD421C10F8011B0029FBD1E5
:10028000801A704710B5002200E0521C835C8C5C21
:10029000A34201D1002BF8D1D8B2E1B2401A10BD6F
:1002A00070B5064609F0A0FF046805460A22002141
:1002B000304600F0F0F92C6070BD2DE9FE4F80460D
:1002C00081EA0300C00F0C46009021F0004123F0AA
:1002D0000045B8EB0200A94105D2404621469046B0
:1002E0001C460B46024623F00040104347D0270D22
:1002F000C7F30A00C3F30A510290401A0190402844
:100300006BDAC3F3130040F4801B0098924620B1CF
:100310000023D2EB030A63EB0B0B01985946C0F1A3
:100320004002504600F096F906460D4650465946A2
:10033000019A00F09EF910EB08006141002487EA61
:10034000115284EAE7731A4340D0009A62B3019ACB
:10035000012A4FEA075215DC001B61EB02014FF046
:10036000004202EA0752CDE90042001C41F580112B
:1003700032462B4600F00DFA03B0BDE8F08F404640
:100380002146F9E7001B61EB0201001C41F58013D7
:1003900000185B412018A2F5001747EB030140EA63
:1003A000D570B6196D4111E06D084FEA360645EA81
:1003B000C0754FEA0752001B61EB0201001C41F5BA
:1003C000801149084FEA30000019514132462B464E
:1003D00003B0BDE8F04F00F0CDB900980122400015
:1003E0000023D0EB020263EBE073009821464FEA52
:1003F000E074B8EB000061EB0401E9E783F000432F
:100400005BE781F0004158E72DE9FE4F81EA0304E4
:1004100004F0004421F0004100944FF0000B23F061
:10042000004350EA01045ED052EA03045BD0C3F3F8
:100430000A54C1F30A552C44A4F2F3340194A0FBEE
:100440000254C1F3130141F48011C3F3130343F4C5
:10045000801301FB024400FB034E840A970A44EA1E
:10046000815447EA8357A4FB076802958D0A05FB70
:1004700007854FEA932C04FB0C542705029D4FEA95
:10048000065847EA1637B5EB08056EEB070C870EE2
:10049000920E47EA811742EA8312A7FB0201B6EBEC
:1004A0000B0164EB00042B0D43EA0C335E1844EBA4
:1004B0001C50DA465146E7FB0201C5F313044FEA2C
:1004C0000B3343EA14534FEA0432019C43EA060318
:1004D000A4F10C040294009CCDE900B400F059F999
:1004E00003B0BDE8F08F00200146F9E72DE9F04D9B
:1004F00081EA030404F0004B21F0004514464FF05C
:10050000000A23F0004150EA050220D054EA01021B
:100510001DD0C5F30A570246C5F31303C1F31300F8
:10052000C1F30A5640F4801543F48013A7EB060884
:10053000101BD64608F2FD3873EB050002D308F114
:10054000010801E092185B41B8F1000F03DA0020C6
:100550000146BDE8F08D00204FF480110646844628
:100560000EE0171B73EB050705D3121B63EB0503A6
:1005700006434CEA010C49084FEA300092185B41EF
:1005800050EA0107EDD152EA030012D082EA0400DA
:1005900083EA0501084305D0101BAB4106D20122B6
:1005A000002306E000224FF0004302E06FF001025A
:1005B00053101AEB06004CEB085110EB0A0041EB0C
:1005C0000B01BDE8F04D00F0D5B800F0004230F06E
:1005D00000400AD0C10D01F56071C0F3160042EA77
:1005E0000151C2084007114370470020014670477F
:1005F00001F0004330B421F0004150EA010206D07E
:100600000A0DA2F56072C1F31301002A02DC30BCAE
:1006100000207047440F44EAC104C100E01830BC18
:1006200000EBC25000F06FB830B50B460146002019
:100630002022012409E021FA02F59D4205D303FAA4
:1006400002F5491B04FA02F52844151EA2F1010225
:10065000F1DC30BD202A04DB203A00FA02F1002050
:1006600070479140C2F1200320FA03F319439040F0
:100670007047202A06DBCB17203A41FA02F043EA02
:10068000E07306E041FA02F3D040C2F1200291404B
:100690000843194670472DE9F04791460F468046BA
:1006A0000446002614F8015B2DB100F003F9006840
:1006B000405DC007F6D12B2D02D02D2D18D0641E21
:1006C0004A463946204600F0F9F827B13968A14278
:1006D00001D1C7F8008071054FF002040BD54042EC
:1006E000002803DD09F080FD0460A007BDE8F08765
:1006F00046F48066E4E70028F8DA09F075FD046046
:100700006FF00040F2E70029A8BF7047401C490085
:1007100008BF20F00100704710B4B0FA80FC00FA66
:100720000CF050EA010404BF10BC704749B1CCF191
:10073000200421FA04F411FA0CF118BF012121431D
:100740000843A3EB0C01CB1D4FEA00614FEA1020D8
:1007500042BF002010BC704700EBC350104400297A
:10076000A4BF10BC7047401C490008BF20F0010026
:1007700010BC704710B5141E73F1000408DA401C59
:1007800041F1000192185B411A4301D120F00100B0
:1007900010BD2DE9F04D92469B4611B1B1FA81F2A0
:1007A00002E0B0FA80F220329046FFF753FF044691
:1007B0000F4640EA0A0041EA0B0153465A460843F5
:1007C00013D0114653EA010019D0C8F14002504637
:1007D000FFF72FFD05460E46504659464246FFF7A5
:1007E00039FF084305D0012004E020463946BDE822
:1007F000F08D0020054346EAE0762C4337430A9803
:100800006305E40AA0EB08000022FD0A44EA47540D
:100810000A3002D500200146E9E7010510196941B7
:10082000DDE9084500196941BDE8F04DA2E7C1F3D3
:100830000A52C1F3130140F2FF3341F480119A428E
:1008400002DA00200146704740F233439A42A2F296
:10085000334202DC5242FFF7ECBCFFF7FBBE000064
:1008600030B5041E71F1000404DB4FF00044404237
:1008700064EB0101141E73F1000405DB1C464FF00C
:100880000043524263EB0403994208BF904230BDDB
:10089000064C074D06E0E06840F0010394E80700CD
:1008A00098471034AC42F6D3FFF77AFC58CD0008D5
:1008B00078CD000800487047D0CA00082DE9F05FE5
:1008C00082460078002715468B460AF10104B94696
:1008D000302801D09DB113E014F8010B01277828CE
:1008E00003D0582801D045B10AE00DB1102D07D131
:1008F0000027102514F8010B02E0082500E00A2566
:100900000026B0460EE005FB080005FB06F10127B6
:1009100001EB10461FFA80F8B6F5803F00D3B946C8
:1009200014F8010B294600F018F80028EBDABBF1A7
:10093000000F05D00FB1641E00E05446CBF8004014
:10094000B9F1000F06D009F04FFC02210160C81E6A
:10095000BDE8F09F48EA0640FAE73A2800D230386E
:1009600020F02002412A01D3A2F13700884201D3AE
:100970004FF0FF30704770B58C1810F8015B15F020
:10098000070301D110F8013B2A1106D110F8012B01
:1009900003E010F8016B01F8016B5B1EF9D12B0726
:1009A00005D40023521E0DD401F8013BFAE710F8DC
:1009B000013BCB1A921C03E013F8015B01F8015BC9
:1009C000521EF9D5A142D8D3002070BD70B505469E
:1009D000AC6B206C00F0500050BB206C40F40070F9
:1009E00020642068806800F04050E8B9207ED8B9C3
:1009F0002068C06A00F4700020B12068806800F4AC
:100A0000806088B92068406820F020002168486034
:100A1000206C20F480702064206C00F4805018B9A1
:100A2000206C40F001002064204602F05BF90BE0EE
:100A3000206C00F0100018B1204602F05CF903E0D1
:100A4000A06BC16C2846884770BD70B50546AC6B7D
:100A500040202064606C40F004006064204602F096
:100A60004AF970BD70B50446A56B284602F042F9FC
:100A700070BD000010B5034802F03EF901200249A4
:100A8000087010BD90020020C900002055494A6836
:100A900022F440324A604A6843681A434A60026856
:100AA000526822F4807203685A60026853680269CF
:100AB00043EA022203685A600268526822F04072D8
:100AC00003685A600268526883681A4303685A6070
:100AD0000268926822F4006203689A600268926871
:100AE000C3681A4303689A603F4B826A9A4218D0DF
:100AF0000268926822F0706203689A6002689268E5
:100B0000836A1A4303689A600268926822F040522E
:100B100003689A6002689268C36A1A4303689A601D
:100B20000BE00268926822F0706203689A600268C3
:100B3000926822F0405203689A600268926822F03C
:100B4000020203689A6002689368027E43EA4202E6
:100B500003689A602022125CA2B10268526842F4D3
:100B6000006203685A600268526822F460420368B7
:100B70005A6002685368426A521E43EA423203686E
:100B80005A6005E00268526822F4006203685A6005
:100B90000268D26A22F470020368DA620268D36AD9
:100BA000828B521E43EA02520368DA62026892683C
:100BB00022F4007203689A600268936890F830200B
:100BC00043EA422203689A600268926822F48062D3
:100BD00003689A6002689368426943EA8222036864
:100BE0009A607047002301400100000F10B52DED01
:100BF000088BB0EE408AF0EE608A9FED100B53EC4C
:100C0000102B51EC180BFFF7F9FB41EC1B0B9FED80
:100C10000D0B53EC102BFFF769FC41EC1A0B9FED09
:100C20000B0B53EC102BFFF748FB41EC190BB0EE0C
:100C3000490AF0EE690ABDEC088B10BD52B81E855A
:100C4000EB51E83F7B14AE47E17A643F00000000BF
:100C50000000394010B52DED088B00209349086045
:100C60009348008800EE100AB8EE400A10EE101A01
:100C70000846FFF7AAFC41EC1B0B9FED8E0B53ECD3
:100C8000102BFFF7C1FB41EC1A0B9FED8C0B53ECC3
:100C9000102BFFF72BFC41EC190B9FED8A0B53EC4B
:100CA000102BFFF7B1FB41EC180BFFF7A1FC8749B4
:100CB00008607F48408800EE100AB8EE400A10EE47
:100CC000101A0846FFF781FC41EC1B0B9FED790BD6
:100CD00053EC102BFFF798FB41EC1A0B9FED770BB1
:100CE00053EC102BFFF702FC41EC190B9FED750B39
:100CF00053EC102BFFF788FB41EC180BFFF778FC47
:100D0000724948606A48808800EE100AB8EE400ACE
:100D100010EE101A0846FFF758FC41EC1B0B9FED34
:100D2000650B53EC102BFFF76FFB41EC1A0B9FED9B
:100D3000680B53EC102BFFF767FB41EC190B9FED91
:100D40005F0B53EC102BFFF7D1FB41EC180BFFF7B7
:100D50004FFC5E4988605648C08800EE100AB8EE25
:100D6000400A10EE101A0846FFF72FFC41EC1B0B4F
:100D70009FED500B53EC102BFFF746FB41EC1A0B89
:100D80009FED4E0B53EC102BFFF7B0FB41EC190B12
:100D90009FED4C0B53EC102BFFF736FB41EC180B7F
:100DA000FFF726FC4949C8604148008900EE100A57
:100DB000B8EE400A10EE101A0846FFF706FC41ECA8
:100DC0001A0B9FED3C0B53EC102BFFF71DFB41EC76
:100DD000190B9FED3A0B53EC102BFFF787FB41ECFF
:100DE000180BFFF705FC394908613BA008F0B4FD7A
:100DF0003648D0ED000AB0EE600A3BA009F098FE3C
:100E00003248D0ED010AB0EE600A3BA009F090FE36
:100E10002E48D0ED020AB0EE600A3BA009F088FE31
:100E20002A48D0ED030AB0EE600A3BA009F080FE2C
:100E3000264890ED040A10EE101A0846FFF7C5FB8D
:100E400041EC1A0BB0EE4A0AF0EE6A0AFFF7CEFE4A
:100E5000B0EE409AF0EE609A51EC190BFFF7C8FB28
:100E600008EE100AB0EE480A2FA009F061FE32A089
:100E700008F072FD0E4801881BA00BF0EDFB0C483A
:100E800041881DA00BF0E8FB094881881EA00BF0EB
:100E9000E3FB0748C18820A00BF0DEFB0448018972
:100EA00021A00BF0D9FBBDEC088B10BDC4010020C4
:100EB000F00700206666666666660A40000000006D
:100EC0000000B0400000000000000040FC070020CF
:100ED0005DBF60376CDB16400D0A2D2D2D2D2D2D9D
:100EE0002D2D2D0D0A000000616463305F352E301A
:100EF0005620202020203A00616463315F332E3376
:100F00005620202020203A00616463325F3132563F
:100F10002020202020203A00616463335F332E3389
:100F20005620202020203A0074656D705F73656E36
:100F30007328D12920203A000D0D0D002DE9F04134
:100F400005460E4614460027B846D4F800800CE04B
:100F500004F1080000EBC70006C885EA010086EA34
:100F60000201084300D102E07F1C022FF0D300BF32
:100F7000022F09D1B8F1020F06D10CA008F0ECFC49
:100F80000027C4E902560EE0022F0CD10FA008F092
:100F9000E3FC04F10800216800EBC10060C0276891
:100FA0002068401C20603846BDE8F081CFF0E5E2C3
:100FB000FBF8E5EDEE20F7E8F1EBEE20CED2CFD056
:100FC000C0C2C8D2C5CBC5C9210D0A00CDEEE2FB17
:100FD000E920E0E4F0E5F1210D0A0000002070476F
:100FE000010E044A1170010C5170010A9170D07009
:100FF00070470000F800002000205A490B78024694
:10100000401C59498B54574949880B120246401CD1
:1010100055498B5453498B780246401C52498B5496
:10102000504991F827300246401C4F498B544D4996
:10103000C96A0B0E0246401C4B498B544949C96A88
:10104000C1F307430246401C47498B544549898DEB
:10105000C1F307230246401C43498B54414991F890
:101060002C300146421CD0B23F4A53543D49496B93
:101070000B0E0146421CD0B23B4A53543949496BCE
:10108000C1F307430146421CD0B2374A5354354995
:10109000898EC1F307230146421CD0B2324A535411
:1010A000304991F834300146421CD0B22E4A535494
:1010B0002C4A116B92F83420090E41EA0221CBB27E
:1010C0000146421CD0B2284A535426490A6B91F873
:1010D00034100B0443EA1241CBB20146421CD0B299
:1010E000214A53541F4A118E92F83420090A41EACA
:1010F0000261CBB20146421CD0B21B4A535419497B
:1011000091F830300146421CD0B2174A5354154969
:10111000896B0B0E0246411CC8B213498B5411490E
:10112000896BC1F307430246411CC8B20E498B5478
:101130000C49098FC1F307230146421CD0B20A4A69
:101140005354084991F838300146421CD0B2064A3F
:101150005354044991F83C300146421CD0B2024A33
:1011600053547047903000203AA4002030B585B029
:101170000546002420222046641C0DF800207E2213
:101180002046641C0DF8002005F13000C2B2204654
:10119000641C0DF8002020222046641C0DF800205D
:1011A00072222046641C0DF8002073222046641C25
:1011B0000DF8002034222046641C0DF8002038224F
:1011C0002046641C0DF8002035222046641C0DF8D2
:1011D00000205F222046641C0DF800207422204667
:1011E000641C0DF8002065222046641C0DF80020C8
:1011F00073222046641C0DF8002074222046641CD3
:101200000DF800203B222046641C0DF800202046EB
:10121000641C0DF8002000222046641C0DF80020FC
:10122000684608F0C9FB05A008F096FB684608F080
:1012300093FB06A008F090FB05B030BDCFEEF1EBBC
:10124000E0ED20EAEEE43A20000000000D0A000084
:1012500000BFFEE72DE9F04F89B00746884600261B
:10126000B146B246B3460020079006900590049020
:10127000039000BF029000BFD2E107F1800000EBB5
:10128000C60103C90122504008437CD1E7A008F001
:1012900063FBE9A008F060FB57F82600002109F085
:1012A000CBFD814657F82600012109F0C5FD824695
:1012B00057F82600022109F0BFFD834657F82600A3
:1012C000032109F0B9FD079057F82600042109F021
:1012D000B3FD069057F82600052109F0ADFD0590F5
:1012E00057F82600062109F0A7FD049057F82600BC
:1012F000072109F0A1FD039018F80900020600215A
:1013000018F80A00094342EA004018F80B204FEA97
:10131000022C0A4640EA0C01079818F80000014325
:10132000069818F800300020000640EA132042EA30
:1013300003620843059918F801300021090441EAC5
:10134000134142EA03420843049918F801100023AC
:101350001B0243EA116342EA012240EA03010398B7
:1013600018F800000243BC48C0E90021BBA004F00B
:1013700067FFAEA008F0F0FA07F5207000EBC6009A
:1013800003C8B94A00E01EE0CDE90001FFF7D6FD31
:1013900004462146B5A00BF05FF9AF480068002174
:1013A00040F26312CDE9001004FB02F0B44A02EBF4
:1013B000001103233246384600F00CFF3146384610
:1013C00007F034F82BE107F1800000EBC600D0E90C
:1013D000001064235940014327D107F5207000EB2A
:1013E000C60003C8A04ACDE90001FFF7A7FD00250C
:1013F0000446A44930C198480068002140F26312B5
:10140000CDE9001004FB02F09D4A02EB001103231A
:101410003246384600F0DEFE4146384607F012FC00
:101420003146384607F002F8F9E007F1800000EB9A
:10143000C600D0E9001003235940014354D157F8A6
:10144000260009F0F9FC814657F82600012109F031
:10145000F3FC824657F82600022109F0EDFC834692
:1014600057F82600032109F0E7FC079018F8090057
:10147000000618F80A1040EA014018F80B1040EA7C
:101480000120079918F80110084302907E4902983C
:10149000087007F5207000EBC60003C8724ACDE95A
:1014A0000001FFF74BFD04460120784908706A48A7
:1014B00000680021CDE9001040F263106043704ADB
:1014C00002EB001103233246384600F083FE31461A
:1014D000384606F0ABFF6EA008F03EFA6A48017885
:1014E00072A00BF0B9F89AE007F1800000EBC6009B
:1014F000D0E900100B225140014329D16EA008F021
:101500002BFA0020754908700A21754801F0ACFAE1
:1015100007F5207000EBC60103C9534ACDE900016D
:10152000FFF70CFD04464C4800680021CDE900108F
:1015300040F263106043524A02EB0011032332462B
:10154000384600F047FE3146384606F06FFF66E049
:1015500007F1800000EBC600D0E900100C225140DA
:10156000014329D15FA008F0F7F90020664908700F
:101570000A21664801F078FA07F5207000EBC600F2
:1015800003C8394ACDE90001FFF7D8FC04463248C8
:1015900000680021CDE9001040F263106043384A32
:1015A00002EB001103233246384600F013FE3146A9
:1015B000384606F03BFF32E007F1800000EBC60042
:1015C000D0E900100D235940014328D150A008F064
:1015D000C3F90020574908700A21574801F044FA1E
:1015E00007F5207000EBC60103C91F4ACDE90001D1
:1015F000FFF7A4FC0446184800680021CDE900105C
:1016000040F2631060431E4A02EB0011032332468E
:10161000384600F0DFFD3146384606F007FF761CFD
:10162000202EFFF42AAE09B0BDE8F08F0D0A2D2D53
:101630002D2D2D2D0D0A0000CAEEECE0EDE4E03A70
:10164000F3F1F2E0EDEEE2EAE020E2F0E5ECE5EDC8
:10165000E8210D0A00000000D00000207E30207438
:10166000696D653B0000000018A40020CDEEECE59C
:10167000F020EEF2EFF0E0E2E8F2E5EBFF3A0000F6
:1016800078360020B0010020B9010020B801002008
:10169000D3EFF0E0E2EBE5EDE8E520EFE8F2E0ED96
:1016A000E8E5EC202B313256210D0A00535441520B
:1016B000545F42503A000000EDE0F7E8EDE0E5EC61
:1016C00020F2E5F1F220EFF0EEE2E5F0EAF320F8A7
:1016D000E8EDFB20343835210D0A00000C01002014
:1016E00018010020EDE0F7E8EDE0E5EC20F2E5F18F
:1016F000F220EFF0EEE2E5F0EAF320F8E8EDFB206F
:10170000535049210D0A00000E010020280100203D
:10171000EDE0F7E8EDE0E5EC20F2E5F1F220EFF0A6
:10172000EEE2E5F0EAF320F8E8EDFB204A54414709
:10173000210D0A000D010020380100207047000033
:101740002DE9F8430646002500244FF40041A14846
:1017500002F060F800287CD168460AF06BFE9DF824
:10176000020000049DF8011000EB01209DF800101C
:1017700045189DF8000000F00100974908739DF896
:101780000000C0F3400088739DF80000C0F38000A3
:10179000C8739DF80000C0F3C00008749DF80000F5
:1017A000C0F3001048749DF80000C0F34010887426
:1017B0009DF80000C0F38010C8749DF80000C009B7
:1017C00008759DF8010000F0010048759DF80100C2
:1017D000C0F3400088759DF80100C0F38000C87513
:1017E0009DF80100C0F3C00008769DF80100C0F329
:1017F000001048769DF80100C0F3401088769DF8EF
:101800000100C0F38010C8769DF80100C009087778
:101810009DF8020000F0010048779DF80200C0F337
:10182000400048739DF80200C0F3C00088779DF81F
:101830000200C0F3001081F820009DF80200C0F300
:101840004010C8779DF80200C0F3801081F8250091
:1018500000E07BE09DF80200C00981F82600012E1F
:1018600074D15E480068854270D000BFABE025FAB5
:1018700004F000F0010759480068E04000F001085A
:10188000474570D0182C12D2DFE804F00C12181E55
:10189000242A30363C42484E545A61676E749B7A13
:1018A00080878D944C48017B4DA00AF0B7FF88E0FB
:1018B0004948817B4EA00AF0B1FF82E04648C17BD7
:1018C0004FA00AF0ABFF7CE04348017C50A00AF037
:1018D000A5FF76E04048417C51A00AF09FFF70E0F0
:1018E0003D48817C52A00AF099FF6AE03A48C17CE9
:1018F00053A00AF093FF64E03748017D54A00AF03A
:101900008DFF5EE03448417D55A00AF087FF58E026
:101910003148817D56A00AF081FF52E02E48C17DFA
:1019200057A00AF07BFF4CE02B48017E58A00AF03C
:1019300075FF46E02848417E59A00AF06FFF40E05D
:101940002548817E5AA00AF069FF3AE040E022482B
:10195000C17E5BA00AF062FF33E01F48017F5CA0FC
:101960000AF05CFF2DE02DE01B48417F5CA00AF0EF
:1019700055FF26E01848417B5DA00AF04FFF20E0AC
:101980001548817F5EA00AF049FF1AE0124890F8DE
:1019900020105FA00AF042FF13E00F48C17F60A053
:1019A0000AF03CFF0DE00C4890F8251060A00AF00A
:1019B00035FF06E0084890F8261061A00AF02EFFD7
:1019C00000BF00BF641C182CFFF651AF0348056030
:1019D000BDE8F8830010024090300020E0010020B4
:1019E000534650325F54585F4641554C54203A009C
:1019F000534650315F54585F4641554C54203A008D
:101A000053465031385F54585F4641554C543A0064
:101A100053465031375F54585F4641554C543A0055
:101A200053465031365F54585F4641554C543A0046
:101A300053465031355F54585F4641554C543A0037
:101A400053465031345F54585F4641554C543A0028
:101A500053465031335F54585F4641554C543A0019
:101A600053465031325F54585F4641554C543A000A
:101A700053465031315F54585F4641554C543A00FB
:101A800053465031305F54585F4641554C543A00EC
:101A9000534650395F54585F4641554C54203A00E4
:101AA000534650385F54585F4641554C54203A00D5
:101AB000534650375F54585F4641554C54203A00C6
:101AC000534650365F54585F4641554C54203A00B7
:101AD000534650355F54585F4641554C54203A00A8
:101AE000534650345F54585F4641554C54203A0099
:101AF000534650335F54585F4641554C54203A008A
:101B000053465032305F54585F4641554C543A006A
:101B100053465032305F4C4F5320202020203A0053
:101B200053465031395F54585F4641554C543A0042
:101B30004F4E4554315F52585F52535349203A003B
:101B40004F4E4554325F52585F52535349203A002A
:101B50000020704710B500240A48006840F2DC51AC
:101B6000884209D908480068012805D100200649A3
:101B7000086006A007F0F0FE034800780A4981F8E3
:101B8000270010BDE4000020E0000020CFD0CECF21
:101B9000C0CB20D1C8C3CDC0CB205431485A5F4DF3
:101BA0004B2121210D0A00009030002010B5044681
:101BB0000022032125200AF02BFD224601212520A9
:101BC0000AF026FD10BD10B5044600220321242092
:101BD0000AF01EFD2246012124200AF019FD10BD45
:101BE00008B5002000901F200AF088FC0A2000F0B1
:101BF000D1FA6A468C2122200AF056FC08BD00006A
:101C000008B507A00068009020200AF077FC0A20A1
:101C100000F0C0FA6A468C2122200AF045FC08BD7B
:101C2000FFFFFF0008B50020009022200AF066FCAC
:101C30000A2000F0AFFA6A468C2122200AF034FC18
:101C400008BD08B50020009023200AF057FC0A20A8
:101C500000F0A0FA6A468C2122200AF025FC08BD7B
:101C600010B504460022032127200AF0D1FC2246A9
:101C7000012127200AF0CCFC10BD70B50446C4F148
:101C8000080101208840C5B204B900252A46032175
:101C9000A82000F02FFA70BD10B5044600220321E1
:101CA00020200AF0B5FC2246012120200AF0B0FCD9
:101CB00010BD10B504460022032121200AF0A8FC23
:101CC0002246012121200AF0A3FC10BD70B5064672
:101CD00000250024554800F03BFB80B14FF4FA7119
:101CE000534800F0C1FE53A004F0AAFA54A007F034
:101CF00033FE5A4845782846FFF738FA70BD4C48FD
:101D000000F026FB002824D04AA004F099FA54A041
:101D100007F022FE5C480078012803D15BA007F0A1
:101D20001BFE10E05D480078032809DA5B48007864
:101D3000401C5A4908700A213C4800F095FE02E018
:101D400057A007F009FE97225A495B4805F058FB57
:101D5000D4E75A4800F0FCFAB8B14FF4FA71584889
:101D600000F082FE33A004F06BFA56A007F0F4FDF9
:101D700000205A4908700021084609F0F5F8054688
:101D8000294657A00AF068FCB8E74D4800F0E0FA91
:101D9000002848D027A004F053FA53A007F0DCFD38
:101DA0005B4801685BA00AF057FC00241EE0214656
:101DB00022A00AF08DFC5DA007F0CEFD04EB8400AC
:101DC0005B4A02EB800081681CA00AF03FFD59A02D
:101DD00007F0C2FD04EB8401554A02EB8101C8689B
:101DE00007F0BAFD32A007F0B7FD641C4848006850
:101DF0008442DCDB4648006802280ED14C48C069AA
:101E00004D49884206D121A007F0A6FD01203349A3
:101E1000087002E022A007F09FFD9922254926487C
:101E200005F0EEFA6AE700BF68E70000180100203D
:101E3000100100207E302074696D653B00000000B9
:101E4000CFEEF1FBEBE0E5EC20EAEEE420EFEE2054
:101E5000F8E8EDE520343835210D0A00980100201E
:101E6000CFF0EEE2E5F0FFE5EC20F0E5E7F3EBFC88
:101E7000F2E0F220F2E5F1F2E020F8E8EDFB2034A8
:101E80003835210D0A0000000C010020D2E5F1F2E6
:101E900020EFF0EEE9E4E5ED210D0A00A8010020B5
:101EA000D2E5F1F220EDE520EFF0EEE9E4E5ED21F9
:101EB0000D0A0000388F0020609F002038010020AC
:101EC00030010020CEEFF0E0F8E8E2E0E5EC20F8A9
:101ED000E8EDF3204A544147210D0A000D0100208E
:101EE000746D70303A000000CFF0EEE2E5F0FFE5EF
:101EF000EC20F0E5E7F3EBFCF2E0F220F2E5F1F2A2
:101F0000E020F8E8EDFB204A544147210D0A00008B
:101F100078020020CAEEEBE8F7E5F1F2E2EE20F3FA
:101F2000F1F2F0EEE9F1F2E23A0000005D2000008B
:101F300008B50020202D2000DD20A00210B50020D3
:101F400002490870024801F0E9F810BD5000002075
:101F50006406002010B5024801F0E0F810BD000052
:101F6000D802002010B5024801F0D8F810BD0000DA
:101F70002407002010B5024801F0D0F810BD000081
:101F8000C406002010B5002002490870024801F084
:101F9000C5F810BD3800002004060020014608786E
:101FA00010381823B0FBF3F20848805CC865032A98
:101FB00005D908686FF30900001D886503E008680B
:101FC0006FF309008865886D704700002CCA00080F
:101FD000014600208A6A8B69CBB932B1012A0DD043
:101FE000022A03D0032A10D10EE000BFCB6A03F00F
:101FF0008073B3F1807F00D1012007E0CB6AB3F199
:10200000C07F00D1012001E000E000BF34E08B6917
:10201000B3F5005F1AD132B1012A07D0022A03D0EA
:10202000032A11D10AE000BF01200EE0CB6A03F0C1
:102030008073B3F1807F00D1012006E0CB6AB3F159
:10204000C07F00D1012000E000BF15E032B1012ABD
:1020500005D0022A04D0032A0CD103E000BF00BF40
:10206000012008E0CB6A03F08073B3F1807F00D1D8
:10207000012000E000BF00BF704730B5046824684D
:1020800024F4802405682C60046863608468402C14
:1020900004D10468A2600468E16003E00468A16000
:1020A0000468E26030BD00002DE9F04385B00446CD
:1020B0000D4626464FF000080027B9460C4801F0AF
:1020C000DBFB0495012003AACDE90020034604AA06
:1020D00031460290064801F00DFF054801F0AEFBC5
:1020E0009DF80C0000F00107384605B0BDE8F0830C
:1020F000380300202DE9FC4104460D4616462746CC
:102100004FF000080B4801F0B7FB8DF804508DF834
:1021100005604FF47A70022301AA39460090054801
:1021200002F0C6F88046034801F088FB4046BDE84F
:10213000FC81000038030020F0B585B05324002551
:1021400000260027114801F097FBF92004904FF674
:10215000FF7000EA44014FF47A7301220B4801F04A
:1021600073FC054655B9012003AACDE900206100A2
:10217000034604AA0290054801F0BCFE034801F0A2
:102180005DFB9DF80C60304605B0F0BD38030020C3
:10219000704700000349086000BF02490968002930
:1021A000FBD170472400002000B5014600220DE05D
:1021B000FA2000F00EF8FA2000F00BF8FA2000F0F8
:1021C00008F8FA2000F005F8501C82B28A42EFDBD2
:1021D00000BD70472DE9F05F06460C46174699464C
:1021E000DDE90AA84FF0000B002506F5207000EB92
:1021F000C70103C9C4E90601A56A402D41D2D4E94B
:102200000A30591C40F10000C4E90A10002105EB16
:10221000450000EBC50204F1300000EBC200C0E94C
:10222000048105EB450000EBC50104F1300000EB33
:10223000C100C0F8049006F5C07000EBC70006C8E6
:1022400005EB450000EBC50304F1300000EBC300D3
:10225000C0E90212012105EB450000EBC50204F1C3
:10226000300040F8321005EB450000EBC50204F1E8
:10227000300000EBC20080F818A0206A29302062EC
:1022800004E04FF0010B03A007F066FB5846BDE8E1
:10229000F09F0000EDE5F220ECE5F1F2E020E4EB48
:1022A000FF20EAE2E8F2E0EDF6E8E9210D0A00009D
:1022B00010B5012001F0B6F901200149087010BDE8
:1022C000C000002010B54FF4805001F0ABF90120A0
:1022D0000149087010BD0000C800002010B50220A0
:1022E00001F0A0F901200149087010BDC1000020D3
:1022F00010B5082001F096F901200149087010BDC1
:10230000C300002010B5402001F08CF901200149E4
:10231000087010BDC60000207047000010B50122F3
:1023200011030A4801F07EFA01225103074801F027
:1023300079FA0120FFF72EFF00224FF400510348E5
:1023400001F070FA0120FFF725FF10BD00040240E4
:1023500001460878012803D1002008700120704749
:102360000020FCE72DE9FC470746894614461D4638
:102370003846F91707EB5171C1F3C706012E02D198
:10238000E0B28DF80300022E08D1E0B28DF8020011
:10239000200A40EA0560C0B28DF80300032E0ED17A
:1023A000E0B28DF80100200A40EA0560C0B28DF865
:1023B0000200200C40EA0540C0B28DF80300042E54
:1023C00014D1E0B28DF80000200A40EA0560C0B2E6
:1023D0008DF80100200C40EA0540C0B28DF80200E3
:1023E000200E40EA0520C0B28DF80300052E17D15B
:1023F000E0B28DF80000200A40EA0560C0B28DF816
:102400000100200C40EA0540C0B28DF80200200E09
:1024100040EA0520C0B28DF80300E8B28DF8040050
:10242000062E1AD1E0B28DF80000200A40EA0560BD
:10243000C0B28DF80100200C40EA0540C0B28DF812
:102440000200200E40EA0520C0B28DF80300E8B279
:102450008DF80400280A8DF80500072E1DD1E0B282
:102460008DF80000200A40EA0560C0B28DF8010036
:10247000200C40EA0540C0B28DF80200200E40EA70
:102480000520C0B28DF80300E8B28DF80400280AD8
:102490008DF80500280C8DF80600082E20D1E0B23A
:1024A0008DF80000200A40EA0560C0B28DF80100F6
:1024B000200C40EA0540C0B28DF80200200E40EA30
:1024C0000520C0B28DF80300E8B28DF80400280A98
:1024D0008DF80500280C8DF80600280E8DF80700F1
:1024E00049F0800009F0AEFE701EC6B24FF0000841
:1024F00009E0A6EB08011DF8010009F0A3FE08F1B0
:10250000010000F0FF08F91707EB5171B8EBE10F7C
:10251000EFDB0020BDE8FC872DE9F04F89B00446D1
:1025200000BF4FF00009CA4600BFCB4600BF00BF46
:10253000207A01060022607A124341EA0041A07A23
:1025400041EA0021E07A0843217B09060A4340EA78
:10255000E171607B000442EA000341EAE072A07B83
:102560000002034342EAE070E17B0B4340EAE17082
:10257000CDE90630FE4ADDE90601FEF7DFFC8046C4
:102580006078217840EA012140F2631008FB00F0F6
:10259000F84A02EB00100180E078A17840EA0121BE
:1025A00040F2631008FB00F002EB0010418020793C
:1025B0000006617940EA0140A17940EA0120E17911
:1025C000084340F2631108FB01F102EB011188603E
:1025D000207A01060022607A124341EA0040A17A83
:1025E00040EA0121E07A41EA0003207B010610461F
:1025F000084343EAE171627B120440EA020341EAC4
:10260000E270A17B0A024FEAE27C1A4340EA0C0026
:10261000E17B0A4340EAE17040F2631108FB01F1FB
:10262000D44B03EB0111C1E90420207C01060022F8
:10263000607C030442EA02001943A27C4FEA022CA8
:10264000024641EA0C01E07C0143207D0006024382
:1026500041EAE071607D0004C317104341EA0302C0
:10266000A17D0902CB1701431A43E07D0B460343CA
:1026700042EAE07140F2631008FB00F0BD4A02EB51
:102680000010C0E90631207E0006617E40EA01406C
:10269000A17E40EA0120E17E084340F2631108FB7D
:1026A00001F102EB01110862207F0006617F40EA20
:1026B0000140A17F40EA0120E17F084340F263111D
:1026C00008FB01F102EB0111486294F820000206B8
:1026D000002194F82100094342EA004094F82220A6
:1026E0004FEA022C0A4640EA0C0194F8230041EA22
:1026F000000394F82400010642EA010043EAE17273
:1027000094F825100904084342EAE17294F826106F
:102710000902084342EAE17294F82710084342EAAA
:10272000E17240F2631108FB01F1924B03EB0111DE
:10273000C1E90A02282500200646074662E1605DDD
:102740000106681C205C41EA0041A81C205C41EAAB
:102750000021E81C205C014340F2631008FB00F0FC
:10276000844A02EB0010303006EB460202EBC60250
:1027700040F83210281D205C0106681D205C41EAEB
:102780000041A81D205C41EA0021E81D205C0143B6
:1027900040F2631008FB00F0764A02EB0010303084
:1027A00006EB460202EBC60200EBC200416005F1F7
:1027B0000800205C0106002205F10900205C12439C
:1027C00041EA004005F10A01615C40EA012105F19E
:1027D0000B00205C014305F10C00205C030642EA7B
:1027E000030041EAE37105F10D02A25C1204D31764
:1027F0000243194305F10E00205C0002C317104389
:1028000041EA030205F10F01615C03460B4342EA12
:10281000E17040F2631108FB01F1564A02EB01112D
:10282000303106EB460202EBC60201EBC201C1E900
:10283000023005F11000205C0106002205F11100B4
:10284000205C030442EA0200194305F11202A25C73
:102850004FEA022C024641EA0C0105F11300205C0C
:10286000014305F11400205C0006024341EAE071D7
:1028700005F11500205C0004024341EAE07105F116
:102880001600205C0002024341EAE07005F11701E6
:10289000615CCB171143184340F2631208FB02F24C
:1028A000344B03EB0212303206EB460303EBC60354
:1028B00002EBC302C2E904102F48D0F800B001684F
:1028C00041600068401E2C4908624FF0000A07E092
:1028D00005EB0A01605C294905F0CCFE0AF1010A0A
:1028E000BAF1180FF4D34FF000091DE005F11800FC
:1028F0004844215C40F2631008FB00F01D4A02EBE3
:102900000010303006EB460202EBC60200EBC200BC
:10291000183000F8091005F118014944605C1749A6
:1029200005F0A8FE09F1010940F2631008FB00F070
:10293000104901EB0010303006EB460101EBC601F7
:1029400050F831004845D1D80B480068401C0A496E
:10295000486205F1180000EB090540F2631008FB1E
:1029600000F0044901EB0010303006EB460107E0AF
:1029700018A40020D8620020389F0020388F002043
:1029800001EBC60100EBC100C1688068CDE904011C
:1029900040F2631008FB00F0234901EB00103030D7
:1029A00006EB460101EBC60100EBC100416900697D
:1029B000CDE9020140F2631008FB00F01A4901EB77
:1029C0000010006940F2631108FB01F1164A02EBA6
:1029D0000111303106EB460202EBC60201EBC201E7
:1029E0004968CDE9001040F2631108FB01F10F4A7C
:1029F00002EB01105B460E4A0E4905F03DFD761CC8
:102A000047F1000740F2631008FB00F0064901EBB4
:102A10000011D1E90A01301A77EB0100FFF48FAE03
:102A200009B0BDE8F08F0000D862002078360020A1
:102A3000609F0020388F002008480068B0F5167F9E
:102A40000AD900200549086005480068401C04496F
:102A5000086001200349087070470000040100204D
:102A6000080100200001002070B504460E46002534
:102A700000202070666000E06D1C094850F82500B9
:102A80000028F9D1064840F8254006A006F064FF6A
:102A90000EA003F0D5FB31460FA009F0DDFD70BD9F
:102AA000D0300020CFEEE4EDE8ECE0E5EC20F4EBF4
:102AB000E0E320EEF2EBEEE6E5EDEDEEE3EE20E70F
:102AC000E0E4E0EDE8FF210D0A0000007E30207414
:102AD000696D653B0000000074696D656F75743A3F
:102AE000000000002DE9F0410446002500260027E3
:102AF00000BF1BE04FF480410F4800F08BFE0746FB
:102B0000700800EBC776012251030B4800F08AFEE3
:102B10000120FFF73FFB00224FF40051064800F070
:102B200081FE0120FFF736FB681C85B2A542E1DB80
:102B30003046BDE8F081000000040240704700000C
:102B400038B502460020009000BF92F83C000128F2
:102B500001D1022038BD012082F83C0000BF086886
:102B6000092816D91068C0680C780A3C04EB4405A3
:102B70000724AC40A0431468E0600C780A3C04EBE6
:102B800044048868A0401468E46820431468E06046
:102B900013E0106800690C7804EB44050724AC408E
:102BA000A043146820610C7804EB44048868A040BA
:102BB000146824692043146820614868072817D2E4
:102BC0001068406B0C79641E04EB84051F24AC4034
:102BD000A04314686063088880B20C79641E04EB1B
:102BE0008404A0401468646B20431468606331E07F
:102BF00048680D2817D21068006B0C79E41F04EBAD
:102C000084051F24AC40A04314682063088880B268
:102C10000C79E41F04EB8404A0401468246B204367
:102C20001468206316E01068C06A0C790D3C04EB50
:102C300084051F24AC40A0431468E062088880B279
:102C40000C790D3C04EB8404A0401468E46A204332
:102C50001468E0621E4B1F4C1068A0420AD108683D
:102C6000122807D1586820F400005860586840F4D2
:102C700080005860174C1068A04222D1164C08689A
:102C8000A04202D0086811281BD1586820F48000A7
:102C90005860586840F4000058600F4C0868A04223
:102CA0000FD10E4800680E4CB0FBF4F000EB800032
:102CB0004000009002E00098401E0090009800281C
:102CC000F9D100BF002082F83C0000BF00BF41E7FF
:102CD0000023014000200140120000108802002063
:102CE00040420F0002490968491C014A11607047BF
:102CF000C40100207047704770B5044600250026C7
:102D000020680068C0F3400520684068C0F34016A2
:102D100095B38EB3206C00F0100018B9206C40F40D
:102D2000007020642068806800F04050E8B9207E80
:102D3000D8B92068C06A00F4700020B120688068AB
:102D400000F4806088B92068406820F02000216885
:102D50004860206C20F480702064206C00F4805067
:102D600018B9206C40F0010020642046FFF7BAFF3C
:102D70006FF012002168086020680068C0F38005C9
:102D800020684068C0F3C016E5B3DEB3206C00F0E5
:102D9000100018B9206C40F400502064206880684E
:102DA00000F4401038BB2068806B00F4401020B164
:102DB0002068806800F48060E8B92068406800F40A
:102DC0008060C0B92068806800F0405098B9207ECB
:102DD00088B92068406820F0800021684860206C35
:102DE00020F480502064206C00F4807018B9206CAE
:102DF00040F0010020642046FFF7A0FE6FF00C00B9
:102E0000216808602068006800F0010520684068BB
:102E1000C0F3801685B17EB12068006800F0010023
:102E200050B1206C40F480302064204600F052F80D
:102E30006FF001002168086020680068C0F3401549
:102E400020684068C0F380667DB176B1606C40F068
:102E5000020060646FF02000216808602046FFF7E0
:102E60004AFF6FF020002168086070BD70B504460D
:102E700000250CB9012070BD1549A06A884200D018
:102E800000BF206C30B9204600F026F800206064B6
:102E900084F83C00206C00F0100088B9206C20F40D
:102EA000885040F0020020642046FDF7EFFD00202E
:102EB0006064206C20F0020040F00100206400E01B
:102EC000012500BF002084F83C0000BF2846D2E75F
:102ED0000100000F7047000010B586B004461421B1
:102EE00001A8FDF7BDF92B492068884250D100BFE9
:102EF000002000902848006840F48070264908604F
:102F00000846006800F48070009000BF00BF00BF5A
:102F10000020009020481438006840F001001E494D
:102F2000143908600846006800F00100009000BFF6
:102F300000BF01200190032002900020039001A90E
:102F4000164800F07DFB16481649086000204860CE
:102F5000002114488160C1604FF480610161490023
:102F60004161890081614911C16109020162042145
:102F70004162012181620021C162016300F0EEF92A
:102F800008B1FFF7C9F900BF0648A063846300BF1A
:102F900006B010BD0020014044380240000002404D
:102FA00010640240D8020020F8B504460D461646CB
:102FB0000020009000BF94F83C00012801D10220BD
:102FC000F8BD012084F83C0000BF2068806800F054
:102FD0000100A0B92068806840F001002168886085
:102FE0003D4800683D49B0FBF1F000EB4000009027
:102FF00002E00098401E009000980028F9D1206857
:10300000806800F00100002864D0206C40F201616B
:10301000884340F4807020642068406800F4806039
:1030200028B1206C20F4005040F480502064206CC3
:1030300000F48050B0F5805F04D1606C20F0060091
:10304000606401E00020606400BF002084F83C0060
:1030500000BF234F2348A16BC8632348A16B0864BA
:103060002248A16BC8646FF02200216808602068C4
:10307000406840F08060216848602068806840F4C3
:10308000807021688860226802F14C0133462A462C
:10309000A06B00F0D9F9786800F01F0058B92068DB
:1030A000806800F0405028B92068806840F0804077
:1030B000216888600EE00E49206888420AD12068A5
:1030C000806800F0405028B92068806840F0804057
:1030D00021688860002073E78802002040420F00CA
:1030E00000230140CD090008650A00084B0A0008CA
:1030F00000200140014691F83500022803D08020CD
:10310000486501207047052081F83500086800688F
:1031100020F001000A6810600020F3E7F8B50446CB
:10312000002000908C4800684FF41651B0FBF1F776
:10313000A56D2E6894F85C1008208840304098B146
:103140002068006800F0040070B12068006820F07A
:1031500004002168086094F85C1008208840A8608A
:10316000606D40F00100606594F85C1001208840BB
:10317000304068B12068406900F0800040B194F8A8
:103180005C1001208840A860606D40F0020060651E
:1031900094F85C1004208840304068B120680068D2
:1031A00000F0020040B194F85C1004208840A86050
:1031B000606D40F00400606594F85C101020884059
:1031C000304078B32068006800F0080050B394F8ED
:1031D0005C1010208840A8602068006800F48020FF
:1031E00080B12068006800F4002028B9206CC8B1C4
:1031F0002046216C884715E0A06C98B12046A16C50
:1032000088470FE02068006800F4807028B92068C3
:10321000006820F0080021680860206C10B120468A
:10322000216C884794F85C102020884030400028AA
:1032300065D02068006800F0100000285FD094F886
:103240005C1020208840A86094F83500052828D11B
:103250002068006820F01600216808602068406936
:1032600020F0800021684861206C08B9A06C28B16A
:103270002068006820F008002168086094F85C105D
:103280003F208840A86000BF002084F8340000BFC1
:10329000012084F83500206D10B12046216D88474B
:1032A000F8BD2068006800F4802080B120680068C4
:1032B00000F4002028B9606C10B12046616C88478A
:1032C0001DE0E06BD8B12046E16B884717E020682D
:1032D000006800F4807068B92068006820F0100071
:1032E0002168086000BF002084F8340000BF01207E
:1032F00084F83500E06B10B12046E16B8847606DC3
:1033000038B3606D00F00100F0B1052084F835009D
:103310002068006820F001002168086000BF009864
:10332000401C0090B84200D905E02068006800F019
:1033300001000028F3D100BF00BF002084F8340052
:1033400000BF012084F83500E06C10B12046E16C2C
:10335000884700BFA4E70000880200202DE9F04163
:103360000446002500F064FA074614B90120BDE8C0
:10337000F081606A00B100BF00BF002084F8340013
:1033800000BF022084F835002068006820F00100AA
:10339000216808600AE000F04BFAC01B052805D937
:1033A00020206065032084F83500E0E7206800688D
:1033B00000F001000028EED1206805682148054092
:1033C000D4E901010843E1680843216908436169C0
:1033D0000843A1690843E1690843216A084305439A
:1033E000606A042803D1D4E90B010843054320682F
:1033F00005602068456925F00705606A0543606A35
:1034000004280DD1A06A0543E06A48B12046FEF7C2
:10341000DFFD28B140206065012084F83500A6E773
:10342000206845612046FEF7B9FD064694F85C1019
:103430003F208840B06000206065012084F835009E
:10344000002094E73F8010F02DE9F04704460D4638
:1034500016461F464FF00008D4F8589000BF94F865
:103460003400012802D10220BDE8F087012084F851
:10347000340000BF94F8350001282BD1022084F8D5
:103480003500002060653B46324629462046FEF75F
:10349000F4FD94F85C103F208840C9F808002068CB
:1034A000006840F01600216808602068406940F01C
:1034B000800021684861206C28B12068006840F0D5
:1034C0000800216808602068006840F00100216859
:1034D000086006E000BF002084F8340000BF4FF011
:1034E00002084046C0E70000F0B50C460025002267
:1034F0000023002181E0012606FA01F504EA050215
:10350000AA4279D13F4E8F0856F827308E07370FE1
:103510000F26BE4033403C4EB04201D1002614E09D
:103520003A4EB04201D101260FE0394EB04201D1EE
:1035300002260AE0374EB04201D1032605E0364E9E
:10354000B04201D1042600E007268F073F0FBE409E
:103550009E4222D18E07370F0F2606FA07F3294E17
:103560008F0856F827609E43264F4FEA910C47F884
:103570002C602A4E36689643284F3E603E1D3668C2
:1035800096433F1D3E603E1D366896433F1D3E609C
:103590003E1D366896433F1D3E6006684FEA410C6B
:1035A000032707FA0CF7BE430660CF0800F1200698
:1035B00056F827604F074FEAD76C0F2707FA0CF72A
:1035C000BE434FEAD10C00F1200747F82C60866813
:1035D0004FEA410C032707FA0CF7BE4386604668A2
:1035E00001278F40BE434660C6684FEA410C03275F
:1035F00007FA0CF7BE43C660491C1029FFF47BAFE5
:10360000F0BD000008380140000002400004024004
:1036100000080240000C024000100240003C014043
:103620007047000010B5044604480068204020B1EF
:10363000024804602046FFF7F3FF10BD143C014030
:10364000F8B503460A460025002400200021CDE0FD
:10365000012606FA01F5166806EA0504AC4273D1A4
:103660005668022E02D05668122E13D1CF0803F1ED
:10367000200656F827004E07F70E0F26BE40B0432F
:103680004F07FF0E1669BE403043CF0803F12006F6
:1036900046F8270018684F000326BE40B04316794D
:1036A00006F003064F00BE40304318605668012EF6
:1036B00008D05668022E05D05668112E02D05668E2
:1036C000122E13D198684F000326BE40B0434F001E
:1036D000D668BE4030439860586801268E40B0439B
:1036E0001679C6F300168E4030435860D8684F00F4
:1036F0000326BE40B0434F009668BE403043D860BA
:10370000566806F08056B6F1805F6ED100BF002685
:103710000096384E366846F48046364F3E603E4648
:10372000366806F48046009600BF00BF324E8F0810
:1037300056F827008E07370F0F26BE40B0432F4E96
:10374000B34202D1002615E04FE02D4EB34201D125
:1037500001260FE02B4EB34201D102260AE02A4E89
:10376000B34201D1032605E0284EB34201D104261D
:1037700000E007268F073F0FBE4030431E4E8F08E4
:1037800046F82700224E3068A043566806F480367B
:10379000B6F5803F00D120431D4E3060361D3068A5
:1037A000A043566806F40036B6F5003F00D120432A
:1037B000174E361D3060361D3068A043566806F43B
:1037C0008016B6F5801F00D12043114E08363060B8
:1037D000361D3068A043566806F40016B6F5001F83
:1037E00000D120430A4E0C363060491C1029FFF4EA
:1037F0002FAFF8BD443802400838014000000240B5
:103800000004024000080240000C02400010024088
:10381000003C0140024613690B400BB1012000E05F
:10382000002070470AB1816101E00B048361704799
:1038300001480068704700007C02002010B5044673
:103840000CB9012010BD242084F83D0020680068D8
:1038500020F0010021680860204600F0E1FD002012
:10386000206484F83D00206384F83E0000BF84F8A3
:103870003C0000BF00BFE5E770B504460CB901206D
:1038800070BD94F83D0028B9002084F83C00204623
:1038900000F0DEFD242084F83D002068006820F060
:1038A0000100216808602068006840F40040216839
:1038B00008602068006820F400402168086000F07B
:1038C000A7FF05465C496068884206D85B48854288
:1038D00001D2012007E0002005E05948854201D2CD
:1038E000012000E00020012800D1C9E75548B5FBC0
:1038F000F0F62068406820F03F00304321684860BF
:103900004D496068884201D8701C07E04FF49670FA
:1039100070434FF47A71B0FBF1F0401C2168096AE2
:1039200021F03F01084321680862434960688842EA
:1039300014D8681E61684900B0FBF1F0401CC0F368
:103940000B00042801D204203DE0681E6168490094
:10395000B0FBF1F0401CC0F30B0034E0A06838B9B4
:10396000681E616801EB4101B0FBF1F0401C0AE008
:10397000681E616801EBC10202EB0111B0FBF1F0BE
:10398000401C40F48040C0F30B0008B901201AE04D
:10399000A06848B9681E616801EB4101B0FBF1F015
:1039A000401CC0F30B000CE0681E616801EBC10213
:1039B00002EB0111B0FBF1F0401CC0F30B0040F42E
:1039C000804040F400402168C9694CF6FF72914381
:1039D00008432168C861D4E90701084321680968E0
:1039E00021F0C001084321680860D4E903100843AE
:1039F0002168896848F2FF32914308432168886052
:103A0000D4E9050108432168C96821F0FF01084392
:103A10002168C8602068006840F0010021680860E3
:103A200000202064202084F83D000020206384F8DA
:103A30003E0000BF24E70000A086010080841E0035
:103A400000093D0040420F002DE9F84F04460F46A3
:103A500090461E46FFF7ECFE05464FF0010994F82C
:103A60003D0020287DD1192301226249204600957E
:103A700002F0E2F910B10220BDE8F88F00BF94F81F
:103A80003C00012801D10220F6E7012084F83C0027
:103A900000BF2068006800F0010028B920680068B5
:103AA00040F00100216808602068006820F4006090
:103AB00021680860242084F83D00002020644E48DE
:103AC000E06200BF2068006840F4807021680860F0
:103AD000334600224FF001112046009502F0ACF968
:103AE00048B12068006800F4807010B14FF4007095
:103AF00020640320C0E707F0FE0021680861FFF79B
:103B000097FE054620684069C0F3400A2068406976
:103B1000C0F3802B10E0FFF78BFE401BB04200D8B3
:103B200016B9A02084F83D0020684069C0F3400A1F
:103B300020684069C0F3802B94F83D00A02805D090
:103B4000BAF1000F02D1BBF1000FE4D0202084F8BD
:103B50003D0020684069C0F3400028B32068006839
:103B600000E044E040F400702168086000BF0020DD
:103B7000009020684069009020688069009000BF34
:103B800000BF192301221B492046009502F054F979
:103B900008B1012070E7202084F83D0000BF00201C
:103BA00084F83C0000BF67E72068006840F40070BC
:103BB000216808606FF48060216848611923012240
:103BC0000C492046009502F037F908B1012053E76F
:103BD00009F10109C145FFF475AF202084F83D00CB
:103BE00000BF002084F83C0000BF012044E7022011
:103BF00042E70000020010000000FFFF2DE9F8433B
:103C00000446894617469846089EFFF711FE05466A
:103C100094F83D0020287DD119230122B249204685
:103C2000009502F009F910B10220BDE8F88300BF49
:103C300094F83C00012801D10220F6E7012084F825
:103C40003C0000BF2068006800F0010028B920682F
:103C5000006840F00100216808602068006820F4D6
:103C6000006021680860222084F83D00102084F85C
:103C70003E00002020646762A4F82A80608D2085C1
:103C80009A48E0622B4632464946204601F0B0FF92
:103C900008B10120C9E7208D88B900BF002000903D
:103CA00020684069009020688069009000BF00BFD4
:103CB0002068006840F400702168086047E0208DAB
:103CC000012817D12068006820F48060216808600E
:103CD00000BF002000902068406900902068806943
:103CE000009000BF00BF2068006840F400702168A9
:103CF00008602CE0208D022818D12068006820F48C
:103D00008060216808602068006840F400602168D5
:103D1000086000E0E6E000BF0020009020684069F5
:103D2000009020688069009000BF10E02068006863
:103D300040F480602168086000BF00200090206887
:103D40004069009020688069009000BF00BFBAE021
:103D5000208D03287ED8208D012815D12A46314692
:103D6000204602F00EF908B101205EE720680069E4
:103D7000616A0870606A401C6062208D401E208568
:103D8000608D401E60859EE0208D02282AD133463A
:103D9000002257492046009502F04EF808B1012054
:103DA00043E72068006840F40070216808602068DC
:103DB0000069616A0870606A401C6062208D401E64
:103DC0002085608D401E608520680069616A0870EA
:103DD000606A401C6062208D401E2085608D401E00
:103DE000608570E03346002241492046009502F08C
:103DF00023F808B1012018E72068006820F48060EB
:103E00002168086020680069616A0870606A401C67
:103E10006062208D401E2085608D401E6085334687
:103E2000002233492046009502F006F808B101202F
:103E3000FBE62068006840F4007021680860206894
:103E40000069616A0870606A401C6062208D401ED3
:103E5000208500E010E0608D401E608520680069CC
:103E6000616A0870606A401C6062208D401E208577
:103E7000608D401E608526E02A463146204602F0CD
:103E800080F808B10120D0E620680069616A0870F6
:103E9000606A401C6062208D401E2085608D401E3F
:103EA000608520684069C0F3800060B120680069C7
:103EB000616A0870606A401C6062208D401E208527
:103EC000608D401E6085208D00287FF441AF20204A
:103ED00084F83D00002084F83E0000BF84F83C00D8
:103EE00000BFA2E60220A0E6020010000000FFFFD3
:103EF000040001002DE9F84F04468946174698460C
:103F0000DDE90AAB0C9EFFF793FC054694F83D00F3
:103F100020287DD119230122E2492046009501F095
:103F20008BFF10B10220BDE8F88F00BF94F83C0071
:103F3000012801D10220F6E7012084F83C0000BFEF
:103F40002068006800F0010028B92068006840F08F
:103F50000100216808602068006820F40060216882
:103F60000860212084F83D00102084F83E000020E5
:103F700020646762A4F82A80608D2085CA48E062C8
:103F80002B4632464946204601F0CAFE00BF0020BB
:103F9000009020684069009020688069009000BF10
:103FA00000BF44E02A463146204602F02AF850B1CC
:103FB000206C042805D12068006840F40070216856
:103FC00008600120AFE7606A007821680861606AD4
:103FD000401C6062608D401E6085208D401E2085E3
:103FE00020684069C0F3800070B1208D60B1606AC4
:103FF000007821680861606A401C6062608D401E24
:104000006085208D401E20852A463146204600E0EE
:1040100045E101F0E3FE50B1206C042805D1206891
:10402000006840F400702168086001207BE7208D63
:104030000028B7D1222084F83D00102084F83E00EB
:1040400000202064C4F824A0A4F82AB0608D208544
:104050009548E0622B4632464946204601F0C8FDAD
:1040600008B101205FE7208D88B900BF00200090D3
:1040700020684069009020688069009000BF00BF00
:104080002068006840F400702168086045E0208DD9
:10409000012817D12068006820F48060216808603A
:1040A00000BF00200090206840690090206880696F
:1040B000009000BF00BF2068006840F400702168D5
:1040C00008602AE0208D022816D12068006820F4BC
:1040D0008060216808602068006840F40060216802
:1040E000086000BF002000902068406900902068B0
:1040F0008069009000BF10E02068006840F4806094
:104100002168086000BF002000902068406900908E
:1041100020688069009000BF00BFB1E0208D0328B7
:104120007ED8208D012815D12A463146204601F03F
:1041300028FF08B10120F6E620680069616A08706E
:10414000606A401C6062208D401E2085608D401E8C
:10415000608595E0208D02282AD1334600225349FC
:104160002046009501F068FE08B10120DBE62068DA
:10417000006840F400702168086020680069616A86
:104180000870606A401C6062208D401E2085608D32
:10419000401E608520680069616A0870606A401C82
:1041A0006062208D401E2085608D401E608567E026
:1041B000334600223D492046009501F03DFE20682F
:1041C000006820F480602168086020680069616AE6
:1041D0000870606A401C6062208D401E2085608DE2
:1041E000401E60853346002230492046009501F08C
:1041F00023FE2068006840F4007021680860206891
:104200000069616A0870606A401C6062208D401E0F
:104210002085608D401E608520680069616A00E02D
:104220000AE00870606A401C6062208D401E208594
:10423000608D401E608523E02A463146204601F00D
:10424000A0FE20680069616A0870606A401C6062B4
:10425000208D401E2085608D401E6085206840694D
:10426000C0F3800060B120680069616A0870606A0C
:10427000401C6062208D401E2085608D401E608540
:10428000208D00287FF44AAF202084F83D000020D4
:1042900084F83E0000BF84F83C0000BF43E60220E3
:1042A00041E60000020010000000FFFF04000100D2
:1042B0002DE9F8430446894616461F46DDF820805E
:1042C000FFF7B6FA054694F83D0020287ED1192361
:1042D000012251492046009501F0AEFD10B10220A7
:1042E000BDE8F88300BF94F83C00012801D102200A
:1042F000F6E7012084F83C0000BF2068006800F069
:10430000010028B92068006840F0010021680860B9
:104310002068006820F4006021680860212084F88B
:104320003D00102084F83E0000202064666267850E
:10433000608D20853948E0622B464246494620463A
:1043400001F0EEFC08B10120CAE700BF0020009098
:1043500020684069009020688069009000BF00BF1D
:1043600044E02A464146204601F04BFE50B1206C05
:10437000042805D12068006840F4007021680860B6
:104380000120ADE7606A007821680861606A401C1E
:104390006062608D401E6085208D401E20852068F3
:1043A0004069C0F3800070B1208D60B1606A007810
:1043B00021680861606A401C6062608D401E6085F3
:1043C000208D401E20852A46414600E022E02046FE
:1043D00001F004FD50B1206C042805D1206800686C
:1043E00040F4007021680860012079E7208D0028E2
:1043F000B7D12068006840F4007021680860202070
:1044000084F83D00002084F83E0000BF84F83C00A2
:1044100000BF65E7022063E7020010000000FFFF15
:1044200010B5044607492068884209D1064800684B
:1044300020F4001004490860C0210448FFF754F834
:1044400010BD00000054004040380240000402400B
:1044500010B586B00446142101A8FBF701FF1B49E3
:10446000206888422FD100BF0020009018480068C3
:1044700040F00200164908600846006800F002009B
:10448000009000BF00BFC0200190122002900120C8
:104490000390032004900420059001A90D48FFF724
:1044A000CFF800BF0020009009481030006840F4A9
:1044B00000100749103108600846006800F4001039
:1044C000009000BF00BF06B010BD000000540040C7
:1044D000303802400004024003480068034909786C
:1044E00008440149086070477C02002084020020D3
:1044F00010B50D48006840F400700B49086008468C
:10450000006840F4806008600846006840F48070ED
:104510000860032000F0A2F8002000F007F800F087
:104520002BF8002010BD0000003C024070B504468E
:104530000E4800784FF47A71B1FBF0F00C4909682D
:10454000B1FBF0F5284600F06CFF08B1012070BD0A
:10455000102C07D200222146501E00F041F80548D9
:10456000046001E00120F2E70020F0E7840200206F
:10457000880200208002002008B500BF00200090C3
:104580000E48006840F480400C4908600846006806
:1045900000F48040009000BF00BF00BF00200090EA
:1045A000081F006840F08050091F08600846006836
:1045B00000F08050009000BF00BF08BD44380240AA
:1045C00001460846002809DB00F01F0301229A403B
:1045D00043099B0003F1E023C3F8002100BF7047AB
:1045E0002DE9F05F80460D461646002705F0E0FDF8
:1045F000074639462A46334601F00700C0F1070A4C
:10460000BAF1040F02D94FF0040A01E0C0F1070A21
:10461000D14600F1040ABAF1070F02D24FF0000AA6
:1046200001E0A0F1030AD4464FF0010A0AFA09FAA0
:10463000AAF1010A0AEA020A0AFA0CFA4FF0010B7F
:104640000BFA0CFBABF1010B0BEA030B4AEA0B0470
:104650002146404605F0B4FDBDE8F09F00BF00F0E4
:104660000702064B19684FF6FF031940044B0B4332
:1046700043EA0221014B196000BF70470CED00E0D6
:104680000000FA0570B504460D460CB9012070BD56
:104690005848006800F00F00A84209D255490D7033
:1046A0000846006800F00F00A84201D00120EEE7A4
:1046B000207800F0020002281DD1207800F00400CC
:1046C000042805D14C48006840F4E0504A4908608D
:1046D000207800F00800082805D14748006840F419
:1046E0006040454908604448006820F0F000A16837
:1046F000084341490860207800F00100A8B36068D1
:10470000012807D13C4808380068C0F34040B8B9D8
:104710000120BCE76068022802D06068032807D146
:10472000354808380068C0F3406048B90120AEE75A
:10473000314808380068C0F3400008B90120A6E7F6
:104740002D48006820F00300616808432A4908608A
:10475000FFF76EF8064609E0FFF76AF8801B41F2A2
:104760008831884202D9032091E707E02248006897
:1047700000F00C006168B0EB810FEDD11D480068BE
:1047800000F00F00A84209D91A490D7008460068C8
:1047900000F00F00A84201D0012078E7207800F057
:1047A0000400042807D11448006820F4E050E168B0
:1047B000084311490860207800F00800082808D153
:1047C0000D48006820F46040216940EAC1000A49B0
:1047D000086000F03DF808490968C1F30311074A71
:1047E000515CC840064908600020FFF79FFE00208A
:1047F0004DE70000003C02400838024034CA00087F
:1048000088020020014800687047000088020020EC
:1048100000B5FFF7F7FF04490968C1F38221034A95
:10482000515CC84000BD00000838024044CA00087E
:1048300000B5FFF7E7FF04490968C1F34231034AB5
:10484000515CC84000BD00000838024044CA00085E
:104850002DE9F047002400250026A14625480068E0
:1048600000F00C0020B1042805D008283AD105E05A
:10487000DFF8849039E0DFF8809036E01D48001FB3
:10488000006800F03F041B48001F006800F480002F
:1048900078B119481749091F0968C1F38811A0FBAD
:1048A00001700146224600233846FBF791FC05467D
:1048B0000EE011480F49091F0968C1F38811A0FBD8
:1048C00001700146224600233846FBF781FC05466D
:1048D0000848001F0068C0F30140401C4600B5FBBB
:1048E000F6F902E0DFF8109000BF00BF4846BDE8CF
:1048F000F0870000083802400024F400F8B50446B0
:104900000CB90120F8BD207800F00100002874D017
:10491000F948006800F00C0004280DD0F648006843
:1049200000F00C00082813D1F348001F006800F4C1
:104930008000B0F5800F0BD1EF4808380068C0F355
:104940004040002859D06068002856D10120D9E79E
:1049500000BF6068B0F5803F08D1E74808380068BC
:1049600040F48030E449083908601EE06068B0F522
:10497000A02F0DD1E0480838006840F48020DE49BF
:10498000083908600846006840F4803008600CE090
:10499000D9480838006820F48030D74908390860C1
:1049A0000846006820F48020086000BF606890B16D
:1049B000FEF73EFF054606E0FEF73AFF401B64287F
:1049C00001D903209EE7CC4808380068C0F3404076
:1049D0000028F1D011E0FEF72BFF054606E0FEF7B8
:1049E00027FF401B642801D903208BE7C248083801
:1049F0000068C0F340400028F1D1207800F00200A8
:104A000002285FD1BC48006800F00C0058B1BA48D9
:104A1000006800F00C0008281CD1B748001F00688F
:104A200000F48000B0B9B44808380068C0F3400012
:104A300020B1E068012801D0012063E7AE480838C2
:104A4000006820F0F800216940EAC100AA4908394D
:104A5000086037E0E06800B30120A8490860FEF76D
:104A6000E7FE054606E0FEF7E3FE401B022801D9FB
:104A7000032047E7A04808380068C0F3400000283A
:104A8000F1D09D480838006820F0F800216940EA1C
:104A9000C10099490839086014E00020974908606E
:104AA000FEF7C6FE054606E0FEF7C2FE401B0228E2
:104AB00001D9032026E7904808380068C0F3400079
:104AC0000028F1D1207800F0080008282CD1606976
:104AD000A8B101208A490860FEF7AAFE054606E053
:104AE000FEF7A6FE401B022801D903200AE78248F0
:104AF0006C300068C0F340000028F1D014E00020C2
:104B00007F490860FEF794FE054606E0FEF790FE3A
:104B1000401B022801D90320F4E677486C30006876
:104B2000C0F340000028F1D1207800F004000428F0
:104B300070D1002670483830006800F0805090B97D
:104B400000BF002000906C483830006840F0805072
:104B50006949383108600846006800F080500090CC
:104B600000BF00BF01266748006800F48070B0B93C
:104B70006448006840F4807062490860FEF758FE9F
:104B8000054606E0FEF754FE401B022801D903202B
:104B9000B8E65C48006800F480700028F2D000BFDE
:104BA000A068012808D154486830006840F001002E
:104BB0005149683108601DE0A06805280DD14E48B4
:104BC0006830006840F004004B49683108600846CE
:104BD000006840F0010008600CE047486830006859
:104BE00020F001004449683108600846006820F060
:104BF0000400086000BFA068A8B1FEF719FE0546D2
:104C000009E0FEF715FE401B41F28831884202D9C7
:104C1000032077E626E0384868300068C0F340009B
:104C20000028EED013E0FEF703FE054608E0FEF78D
:104C3000FFFD401B41F28831884201D9032061E623
:104C40002D4868300068C0F340000028EFD1012EE5
:104C500007D129483830006820F080502649383183
:104C6000086000BFA069B8B32348006800F00C00DA
:104C700008285ED0A069022846D100201F49086696
:104C8000FEF7D6FD054606E0FEF7D2FD401B0228E2
:104C900001D9032036E6184808380068C0F34060A0
:104CA0000028F1D1D4E907010843616A40EA811183
:104CB0000122A06AC2EB500041EA00412C20005DB5
:104CC00041EA00600C49091F086001200B49086691
:104CD000FEF7AEFD054607E02DE0FEF7A9FD401BFF
:104CE000022801D903200DE6034808380068C0F304
:104CF00040600028F1D01EE0083802400000474222
:104D0000800E47420070004000200C490866FEF704
:104D10008FFD054606E0FEF78BFD401B022801D9FA
:104D20000320EFE506480068C0F340600028F2D198
:104D300001E00120E6E50020E4E500000000474234
:104D40000038024070470000F8B504462068466805
:104D500020688568C5F3801048B905F0010030B1BE
:104D6000C6F3801018B12046216C8847F8BDC5F302
:104D7000400030B1C6F3C01018B12046616C8847BE
:104D8000F4E7C5F3401030B9C5F3801018B9C5F386
:104D9000002000287CD0C6F3401000287DD0C5F349
:104DA0008010F0B194F8510003280ED0606D40F0EF
:104DB0000400606500BF002000902068C06800907B
:104DC00020688068009000BF0BE000BF00200090CA
:104DD0002068C068009020688068009000BF00BF15
:104DE000C4E7C5F3401088B1606D40F00100606514
:104DF00000BF002000902068806800902068006854
:104E000020F040002168086000BF00BFC5F300200B
:104E100058B1606D40F00800606500BF0020009050
:104E200020688068009000BF00BF606D78B3206884
:104E3000406820F0E00021684860012084F85100BB
:104E400006F00200022802D006F0010008B3206834
:104E5000406820F0030021684860E06C50B11048C1
:104E6000E16C0865E06CFEF745F918B1606D40F043
:104E700040006065A06C50B10948A16C0865A06C49
:104E8000FEF738F918B1606D40F04000606503E04E
:104E900003E02046FFF756FF68E700BF66E7000023
:104EA0003D89000810B504460CB9012010BD606AA8
:104EB00000B900BF0021A16294F8510028B9002078
:104EC00084F85000204600F033F8022084F85100A6
:104ED0002068006820F0400021680860D4E90101E2
:104EE0000843E16808432169084361690843218B4D
:104EF00001F400710843E1690843216A0843A16A8B
:104F00000843216808600421A06901EA1040616A31
:104F10000843216848602068C06920F40060216867
:104F2000C86100206065012084F851000020BDE7C1
:104F300010B586B00446142101A8FBF791F99A49EF
:104F40002068884230D100BF002000909748006858
:104F500040F48050954908600846006800F480508D
:104F6000009000BF00BF00BF002000908F481438A1
:104F7000006840F001008D49143908600846006857
:104F800000F00100009000BF00BFE020019002206F
:104F9000029000200390032004900520059001A9B1
:104FA0008348FEF74DFB6EE082492068884233D18A
:104FB00000BF002000907D48001F006840F4804042
:104FC0007A49091F08600846006800F48040009094
:104FD00000BF00BF00BF0020009074481438006874
:104FE00040F002007149143908600846006800F07A
:104FF0000200009000BF00BF4FF4704001900220FB
:10500000029000200390032004900520059001A940
:105010006948FEF715FB36E068492068884232D1BE
:1050200000BF002000906148001F006840F400406D
:105030005E49091F08600846006800F400400090BF
:1050400000BF00BF00BF002000905848143800681F
:1050500040F004005549143908600846006800F023
:105060000400009000BF00BF4FF4E0500190022008
:10507000029000200390032004900620059001A9CF
:105080004F48FEF7DDFA4F49206888422FD100BF14
:10509000002000904548006840F4005043490860F3
:1050A0000846006800F40050009000BF00BF00BF39
:1050B000002000903D481438006840F010003B4943
:1050C000143908600846006800F01000009000BF26
:1050D00000BF642001900220029000200390032072
:1050E00004900520059001A93748FEF7A9FA374931
:1050F0002068884255D100BF002000902B480068EE
:1051000040F48010294908600846006800F48010C7
:10511000009000BF00BF00BF00200090234814385B
:10512000006840F002002149143908600846006810
:1051300000F00200009000BF00BF00BF0020009000
:105140000846006840F0100008600846006800F05B
:105150001000009000BF00BF46F210000190022036
:10516000029000200390032004900620059001A9DE
:105170001548FEF765FA01200190022002900020F8
:105180000390032004900620059001A90A48FEF729
:1051900057FA002211465520FFF722FA5520FFF753
:1051A0000FFA06B010BD0000003001404438024044
:1051B000000002400038004000040240003C004073
:1051C000000802400034014000100240005001403D
:1051D0002DE9FF5F0446884691461D460E9E01203C
:1051E00002900020019000BF94F85000012803D1E4
:1051F000022004B0BDE8F09F012084F8500000BFF9
:10520000FEF716FB074694F851B060680390AA4673
:10521000BBF1010F0BD00398B0F5827F04D1A068D9
:1052200010B9BBF1040F02D002200190DBE0B8F10D
:10523000000F03D0B9F1000F00D015B90120019083
:10524000D1E094F85100042802D0052084F85100E0
:1052500000206065C4F83890E587A587C4F83080E1
:10526000E586A586206460642068006800F0400040
:10527000402805D02068006840F0400021680860A0
:10528000E068B0F5006F4AD1606810B1BAF1010F63
:1052900009D1206B00882168C860206B801C2063C6
:1052A000E08E401EE08633E02068806800F0020057
:1052B000022810D1E08E70B1029801280BD1206B2A
:1052C00000882168C860206B801C2063E08E401E2F
:1052D000E086002002902068806800F0010068B13C
:1052E000E08F58B12068C068A16B0880A06B801C5B
:1052F000A063E08F401EE08701200290FEF798FA3D
:10530000C01BB04204D3701C10B1032001906AE0AE
:10531000E08E0028C8D1E08F0028C5D14AE060683F
:1053200010B1BAF1010F09D1206B00782168087320
:10533000206B401C2063E08E401EE08634E0206835
:10534000806800F00200022810D1E08E70B102984F
:1053500001280BD1206B007821680873206B401C5A
:105360002063E08E401EE086002002902068806866
:1053700000F0010068B1E08F58B12068C068A16BEF
:105380000870A06B401CA063E08F401EE0870120E6
:105390000290FEF74DFAC01BB04201D3701C00B959
:1053A00016B9032001901EE0E08E0028C7D1E08FDF
:1053B0000028C4D13A463146204603F0C9FA20B14C
:1053C00001200190202060650DE0A06850B900BF69
:1053D000002000902068C0680090206880680090DD
:1053E00000BF00BF00BF012084F8510000BF0020B3
:1053F00084F8500000BF0198FBE6042808D14FF064
:10540000E021096941F004014FF0E022116107E059
:105410004FF0E021096921F004014FF0E022116111
:10542000704770B504462546681EB0F1807F01D3F1
:1054300001200FE0681E4FF0E02148610F214FF07E
:10544000FF3004F0BDFE00204FF0E021886107200E
:105450000861002070BD70477047704710B5044662
:1054600020680069C0F34000D8B12068C068C0F36C
:105470004000B0B16FF00200216808610120207780
:105480002068806900F0030018B12046FFF7E5FFAF
:1054900005E0204600F0ADF8204600F0ABF8002013
:1054A000207720680069C0F38000D8B12068C06808
:1054B000C0F38000B0B16FF00400216808610220E1
:1054C00020772068806900F4407018B12046FFF70B
:1054D000C4FF05E0204600F08CF8204600F08AF872
:1054E0000020207720680069C0F3C000D8B1206890
:1054F000C068C0F3C000B0B16FF008002168086157
:10550000042020772068C06900F0030018B120460D
:10551000FFF7A3FF05E0204600F06BF8204600F0FF
:1055200069F80020207720680069C0F30010D8B126
:105530002068C068C0F30010B0B16FF0100021689F
:105540000861082020772068C06900F4407018B115
:105550002046FFF782FF05E0204600F04AF820468B
:1055600000F048F8002020772068006900F0010072
:1055700058B12068C06800F0010030B16FF0010040
:1055800021680861204600F036F820680069C0F301
:10559000C01058B12068C068C0F3C01030B16FF0BF
:1055A0008000216808612046FFF755FF20680069E8
:1055B000C0F3801058B12068C068C0F3801030B1CB
:1055C0006FF0400021680861204600F015F820685F
:1055D0000069C0F3401058B12068C068C0F34010A3
:1055E00030B16FF02000216808612046FFF734FFDA
:1055F00010BD7047704770477047704701460022E2
:10560000002391F8392091F83A3042EA03007047BC
:105610002DE9F0470446206805682068C6682068C0
:1056200047694FF00008C14605F00F08B8F1000FB8
:105630000AD105F0200038B106F0200020B1204644
:1056400004F0E0FABDE8F087B8F1000F6ED007F083
:10565000010018B906F49070002867D005F0010029
:1056600030B106F4807018B1E06B40F00100E063E7
:1056700005F0040030B107F0010018B1E06B40F014
:105680000200E06305F0020030B107F0010018B13C
:10569000E06B40F00400E06305F0080030B107F073
:1056A000010018B1E06B40F00800E063E06B70B3FC
:1056B00005F0200028B106F0200010B1204604F0CB
:1056C000A1FA20684069C0F38019E06B00F008007F
:1056D00010B9B9F1000F23D0204604F069FA206810
:1056E000406900F04000402816D12068406920F051
:1056F000400021684861606B50B11748616B0865D4
:10570000606BFDF7F7FC10B1606B016D88470CE032
:105710002046FFF772FF08E02046FFF76EFF04E027
:105720002046FFF76AFF0020E0638BE705F080006A
:1057300030B106F0800018B1204604F06BFC81E720
:1057400005F0400030B106F0400018B1204604F0EA
:105750003FFA77E700BF75E7419A000810B50446A5
:105760000CB9012010BDA06900B100E000BF94F8A1
:10577000390028B9002084F83800204600F028F8C5
:10578000242084F839002068C06820F40050216883
:10579000C860204604F08AFA2068006920F490402E
:1057A000216808612068406920F02A00216848616A
:1057B0002068C06840F400502168C8600020E063A1
:1057C000202084F8390084F83A000020CAE700005D
:1057D00010B586B00446142101A8FAF741FD8C49A2
:1057E000206888425AD100BF002000908948006894
:1057F00040F01000874908600846006800F010007B
:10580000009000BF00BF00BF002000908148143806
:10581000006840F001007F491439086008460068BC
:1058200000F00100009000BF00BF4FF4C060019085
:10583000022002900120039003200490072005908D
:1058400001A97548FDF7FCFE7448754908604FF0E2
:10585000006048604021724881600021C1604FF4BF
:1058600080610161002141618161C1614FF480313A
:10587000016204214162FDF771FD08B1FCF74CFDA6
:1058800000BF67482063846300BF002211462520C3
:10589000FEF7A6FE2520FEF793FEB7E061492068DB
:1058A000884257D100BF002000905A48006840F05D
:1058B0002000584908600846006800F02000009069
:1058C00000BF00BF00BF002000905248143800689D
:1058D00040F004004F49143908600846006800F0A1
:1058E0000400009000BF00BFC02001900220029081
:1058F00001200390032004900820059001A94A4844
:10590000FDF79EFE45481838484908604FF0206072
:1059100048604021454881600021C1604FF48061AA
:105920000161002141618161C16101624162FDF754
:1059300015FD08B1FCF7F0FC00BF3C482063846310
:1059400000BF002211464720FEF74AFE4720FEF71F
:1059500037FE5BE036492068884257D100BF0020FF
:1059600000902C48001F006840F400302949091FAE
:1059700008600846006800F40030009000BF00BFD7
:1059800000BF0020009023481438006840F0080051
:105990002049143908600846006800F008000090AB
:1059A00000BF00BF60200190022002900120039000
:1059B000032004900720059001A91E48FDF740FE32
:1059C0001D481E4908604FF00060486040211B4898
:1059D00081600021C1604FF480610161002141615B
:1059E0008161C16101624162FDF7B8FC08B1FCF759
:1059F00093FC00BF11482063846300BF002211465E
:105A00002620FEF7EDFD2620FEF7DAFD06B010BDDC
:105A1000001001404438024000000240B8640240D7
:105A2000040600200014014000080240C4060020C3
:105A300000440040000C0240A060024064060020C8
:105A400010B5034693F83A0020282FD101B10AB9C6
:105A5000012010BD00BF93F83800012801D10220B9
:105A6000F7E7012083F8380000BF99629A85DA854C
:105A70000020D863222083F83A0000BF002083F87A
:105A8000380000BF1868C06840F480701C68E0608F
:105A90001868406940F001001C6860611868C068BF
:105AA00040F020001C68E0600020D2E70220D0E730
:105AB00010B5044610490978104A1068421C0F4B73
:105AC0001A600F4A115418460068402802D100207D
:105AD000194608600B480068401C0A4908604028C5
