:020000040800F2
:10000000E8CF0020AD0100087D5E000885420008B1
:10001000995A0008850F0008817800080000000048
:1000200000000000000000000000000085670008DC
:100030003917000800000000DD5E0008996C000818
:10004000C7010008C7010008C7010008C701000870
:10005000C7010008C7010008DD17000809180008DB
:10006000C70100081D180008C7010008C7010008E3
:10007000C7010008C7010008C7010008C701000840
:10008000C701000885150008750A00080000000077
:10009000000000000000000000000000311800080F
:1000A000C7010008C7010008C7010008C701000810
:1000B000C7010008C7010008596E0008C701000801
:1000C000C7010008C7010008C7010008C7010008F0
:1000D000C7010008257800083178000800000000FA
:1000E000F1170008C7010008C70100080000000060
:1000F000000000000000000000000000C701000830
:1001000000000000C7010008C7010008C70100087F
:1001100000000000000000000000000000000000DF
:1001200099150008A5150008C7010008C7010008B7
:10013000C7010008000000000000000000000000EF
:10014000000000000000000000000000C7010008DF
:10015000C7010008B1150008BD1500083D7800086A
:10016000C7010008C70100080000000000000000EF
:10017000000000000000000000000000000000007F
:1001800000000000C701000800000000000000009F
:10019000C7010008AD650008DFF80CD000F084FB53
:1001A00000480047F58C0008E8CF0020064880474B
:1001B00006480047FEE7FEE7FEE7FEE7FEE7FEE74C
:1001C000FEE7FEE7FEE7FEE7056E0008990100087E
:1001D0002DE9F05F0546002092469B46884606467C
:1001E000814640241BE0284641464746224600F00F
:1001F00020F853465A46C01A914110D3114618466A
:10020000224600F034FA2D1A67EB01084F462246C9
:100210000120002100F02BFA17EB00094E41201EAF
:10022000A4F10104DFDC484631462A464346BDE8D6
:10023000F09F202A04DB203A21FA02F000217047C7
:1002400021FA02F3D040C2F120029140084319463E
:100250007047D2B201E000F8012B491EFBD2704773
:100260000022F6E710B513460A4604461946FFF782
:10027000F0FF204610BD421C10F8011B0029FBD1E5
:10028000801A704710B5002200E0521C835C8C5C21
:10029000A34201D1002BF8D1D8B2E1B2401A10BD6F
:1002A00070B5064607F022FB046805460A220021C5
:1002B000304600F0FDF92C6070BD2DE9FE4F804600
:1002C00081EA0300C00F0C46009021F0004123F0AA
:1002D0000045B8EB0200A94105D2404621469046B0
:1002E0001C460B46024623F00040104347D0270D22
:1002F000C7F30A00C3F30A510290401A0190402844
:100300006BDAC3F3130040F4801B0098924620B1CF
:100310000023D2EB030A63EB0B0B01985946C0F1A3
:100320004002504600F0A3F906460D465046594695
:10033000019A00F0ABF910EB08006141002487EA54
:10034000115284EAE7731A4340D0009A62B3019ACB
:10035000012A4FEA075215DC001B61EB02014FF046
:10036000004202EA0752CDE90042001C41F580112B
:1003700032462B4600F01AFA03B0BDE8F08F404633
:100380002146F9E7001B61EB0201001C41F58013D7
:1003900000185B412018A2F5001747EB030140EA63
:1003A000D570B6196D4111E06D084FEA360645EA81
:1003B000C0754FEA0752001B61EB0201001C41F5BA
:1003C000801149084FEA30000019514132462B464E
:1003D00003B0BDE8F04F00F0DAB900980122400008
:1003E0000023D0EB020263EBE073009821464FEA52
:1003F000E074B8EB000061EB0401E9E783F000432F
:100400005BE781F0004158E72DE9FE4F81EA0304E4
:1004100004F0004421F0004100944FF0000B23F061
:10042000004350EA01045ED052EA03045BD0C3F3F8
:100430000A54C1F30A552C44A4F2F3340194A0FBEE
:100440000254C1F3130141F48011C3F3130343F4C5
:10045000801301FB024400FB034E840A970A44EA1E
:10046000815447EA8357A4FB076802958D0A05FB70
:1004700007854FEA932C04FB0C542705029D4FEA95
:10048000065847EA1637B5EB08056EEB070C870EE2
:10049000920E47EA811742EA8312A7FB0201B6EBEC
:1004A0000B0164EB00042B0D43EA0C335E1844EBA4
:1004B0001C50DA465146E7FB0201C5F313044FEA2C
:1004C0000B3343EA14534FEA0432019C43EA060318
:1004D000A4F10C040294009CCDE900B400F066F98C
:1004E00003B0BDE8F08F00200146F9E72DE9F04D9B
:1004F00081EA030404F0004B21F0004514464FF05C
:10050000000A23F0004150EA050220D054EA01021B
:100510001DD0C5F30A570246C5F31303C1F31300F8
:10052000C1F30A5640F4801543F48013A7EB060884
:10053000101BD64608F2FD3873EB050002D308F114
:10054000010801E092185B41B8F1000F03DA0020C6
:100550000146BDE8F08D00204FF480110646844628
:100560000EE0171B73EB050705D3121B63EB0503A6
:1005700006434CEA010C49084FEA300092185B41EF
:1005800050EA0107EDD152EA030012D082EA0400DA
:1005900083EA0501084305D0101BAB4106D20122B6
:1005A000002306E000224FF0004302E06FF001025A
:1005B00053101AEB06004CEB085110EB0A0041EB0C
:1005C0000B01BDE8F04D00F0E2B80EB540F233414A
:1005D00002910021CDE900110A460B4600F0E6F831
:1005E00003B000BD00F0004230F000400AD0C10D61
:1005F00001F56071C0F3160042EA0151C2084007DC
:100600001143704700200146704701F0004330B4A9
:1006100021F0004150EA010206D00A0DA2F56072F5
:10062000C1F31301002A02DC30BC00207047440FE4
:1006300044EAC104C100E01830BC00EBC25000F035
:100640006FB830B50B46014600202022012409E096
:1006500021FA02F59D4205D303FA02F5491B04FA7B
:1006600002F52844151EA2F10102F1DC30BD202A5A
:1006700004DB203A00FA02F1002070479140C2F1F9
:10068000200320FA03F3194390407047202A06DB29
:10069000CB17203A41FA02F043EAE07306E041FA50
:1006A00002F3D040C2F1200291400843194670473E
:1006B0002DE9F04791460F4680460446002614F87F
:1006C000015B2DB100F002F90068405DC007F6D172
:1006D0002B2D02D02D2D18D0641E4A4639462046B7
:1006E00000F0F8F827B13968A14201D1C7F80080BD
:1006F00071054FF002040BD54042002803DD07F0DE
:10070000F5F80460A007BDE8F08746F48066E4E7EA
:100710000028F8DA07F0EAF804606FF00040F2E72A
:100720000029A8BF7047401C490008BF20F0010005
:10073000704710B4B0FA80FC00FA0CF050EA0104E3
:1007400004BF10BC704749B1CCF1200421FA04F475
:1007500011FA0CF118BF012121430843A3EB0C014E
:10076000CB1D4FEA00614FEA102042BF002010BCB1
:10077000704700EBC35010440029A4BF10BC704761
:10078000401C490008BF20F0010010BC704710B5A4
:10079000141E73F1000408DA401C41F100019218A4
:1007A0005B411A4301D120F0010010BD2DE9F04D4D
:1007B00092469B4611B1B1FA81F202E0B0FA80F2A2
:1007C00020329046FFF753FF04460F4640EA0A00E6
:1007D00041EA0B0153465A46084313D0114653EAE7
:1007E000010019D0C8F140025046FFF722FD05462E
:1007F0000E46504659464246FFF739FF084305D09A
:10080000012004E020463946BDE8F08D0020054374
:1008100046EAE0762C4337430A986305E40AA0EBE6
:1008200008000022FD0A44EA47540A3002D500209D
:100830000146E9E7010510196941DDE9084500199C
:100840006941BDE8F04DA2E7C1F30A52C1F31301BB
:1008500040F2FF3341F480119A4202DA002001464F
:10086000704740F233439A42A2F2334202DC5242D2
:10087000FFF7DFBCFFF7FBBE30B5041E71F10004CB
:1008800004DB4FF00044404264EB0101141E73F19D
:10089000000405DB1C464FF00043524263EB0403A7
:1008A000994208BF904230BD064C074D06E0E06813
:1008B00040F0010394E8070098471034AC42F6D3A7
:1008C000FFF76EFCBC9D0008DC9D000800487047E7
:1008D000349B00082DE9F05F82460078002715461A
:1008E0008B460AF10104B946302801D09DB113E0CE
:1008F00014F8010B0127782803D0582801D045B1FE
:100900000AE00DB1102D07D10027102514F8010BB6
:1009100002E0082500E00A250026B0460EE005FBAF
:10092000080005FB06F1012701EB10461FFA80F8CD
:10093000B6F5803F00D3B94614F8010B294600F004
:1009400018F80028EBDABBF1000F05D00FB1641ED8
:1009500000E05446CBF80040B9F1000F06D006F095
:10096000C5FF02210160C81EBDE8F09F48EA0640AD
:10097000FAE73A2800D2303820F02002412A01D389
:10098000A2F13700884201D34FF0FF30704770B5B5
:100990008C1810F8015B15F0070301D110F8013B2A
:1009A0002A1106D110F8012B03E010F8016B01F8B1
:1009B000016B5B1EF9D12B0705D40023521E0DD409
:1009C00001F8013BFAE710F8013BCB1A921C03E057
:1009D00013F8015B01F8015B521EF9D5A142D8D38F
:1009E000002070BD10B50146806B026C12F0500FF4
:1009F00005D0026CD20626D501F04FFA10BD016C6D
:100A000041F40071016401688A6812F0405F17D1F7
:100A1000027EAAB9CA6A12F4700F02D08A6852051F
:100A20000ED44A6822F020024A60016C21F48071E1
:100A30000164016CC90403D4016C41F0010101643B
:100A400001F022FA10BD806BC26CBDE81040084670
:100A5000104710B5806B40210164416C41F00401E6
:100A6000416401F01AFA10BD10B5806B01F014FA60
:100A700010BD000010B5034801F010FA0249012032
:100A8000087010BDAC010020F2000020464910B5EE
:100A90004A6822F440324A604A6843681A434A600E
:100AA00001684A6822F480724A6001684A680369F2
:100AB00042EA03224A6001684A6822F040724A60B2
:100AC00001684A6883681A434A6001688A6822F4A8
:100AD00000628A6001688A68C3681A438A60816A12
:100AE0006FF07062D14201688A6822F070628A6099
:100AF00001688A680CD0836A1A438A6001688A6830
:100B000022F040528A6001688A68C36A1A4301E091
:100B100022F040528A6001688A6822F002028A60EC
:100B200001688A68037E42EA43028A6090F82010D6
:100B3000002901684A680FD042F400624A600168E7
:100B40004A6822F460424A6001684A68174C436A66
:100B500004EB43331A4301E022F400624A60016867
:100B6000CA6A22F47002CA620168CA6A838B104C96
:100B700004EB03531A43CA6201688A6822F40072C4
:100B80008A6001688A6890F8303042EA43228A60BD
:100B900001688A6822F480628A6001688A68406914
:100BA00042EA8020886010BD0023014000E0FFFF82
:100BB0000000F0FF9FED0B1B10B553EC112B51EC17
:100BC000100BFFF71BFC9FED091B53EC112BFFF7DC
:100BD0008DFC9FED081B53EC112BFFF76EFB41ECD6
:100BE000100B10BD52B81E85EB51E83F7B14AE4789
:100BF000E17A643F000000000000394070B55449BC
:100C000000202DED068B8864524C2088FFF7DDFC18
:100C10009FED518B53EC182BFFF7F6FB9FED509B8C
:100C200053EC192BFFF7F0FB9FED4FAB53EC1A2B56
:100C3000FFF7EAFBFFF7E9FC04F10C052860608888
:100C4000FFF7C3FC53EC182BFFF7DEFB53EC192B1B
:100C5000FFF7DAFB53EC1A2BFFF7D6FBFFF7D5FCB7
:100C60006860A088FFF7B1FC53EC182BFFF7CCFBB2
:100C70009FED3F1B53EC112BFFF7C6FB53EC192BD9
:100C8000FFF7C2FBFFF7C1FCA860E088FFF79DFCFF
:100C900053EC182BFFF7B8FB53EC192BFFF7B4FB01
:100CA00053EC1A2BFFF7B0FBFFF7AFFCE86020898D
:100CB000FFF78BFC53EC182BFFF7A6FB53EC192B1B
:100CC000FFF7A2FBFFF7A1FC28612BA006F0A6FA14
:100CD00095ED000A2CA007F0A7FA95ED010A2EA0C9
:100CE00007F0A2FA95ED020A2FA007F09DFA95ED04
:100CF000030A31A007F098FA2869FFF773FC41EC6A
:100D0000100BFFF757FF51EC100BFFF77EFC00EEC6
:100D1000100A2DA007F088FA2FA006F07FFA21888C
:100D200019A008F0E7FC61881BA008F0E3FCA1888B
:100D30001DA008F0DFFCE1881FA008F0DBFC218982
:100D400021A0BDEC068BBDE8704008F0D3BC0000CC
:100D500000000020680400206666666666660A4039
:100D6000000000000000303F0000000000000040D4
:100D70005DBF60376CDB16400D0A2D2D2D2D2D2DFE
:100D80002D2D2D0D0A000000616463305F352E307B
:100D90005620202020203A00616463315F332E33D7
:100DA0005620202020203A00616463325F313256A1
:100DB0002020202020203A00616463335F332E33EB
:100DC0005620202020203A0074656D705F73656E98
:100DD0007328D12920203A000D0D0D0070B505466D
:100DE000136814460E46002004EBC001D1E902212D
:100DF0006A4071400A4302D0401C0228F4D3022802
:100E00000CD1022B0BD009A006F008FA206804EBE5
:100E1000C000C0E902562068411C216070BD07A0D7
:100E200006F0FCF9C4E90256002070BDCDEEE2FBED
:100E3000E920E0E4F0E5F1210D0A0000CFF0E5E261
:100E4000FBF8E5EDEE20F7E8F1EBEE20CED2CFD0C7
:100E5000C0C2C8D2C5CBC5C9210D0A000449020EC3
:100E60000A70020C4A70020A8A70C870704700004B
:100E70009800002030B51C491C480A7802704A8846
:100E8000130A437082708A7CC2708A69130E0371E0
:100E9000130C4371130A8371C2714A6A130E0372F1
:100EA000130C4372130A8372C2720B6A91F82420E6
:100EB0001C0E44EA022404731C0C44EA02444473EA
:100EC000140644EA1322827391F82020C2738A6ABE
:100ED000130E0374130C4374130A8374C27491F8D1
:100EE0002C10017530BD0000882C0020806E002081
:100EF00000B585B020218DF800107E228DF80120EC
:100F000030308DF802008DF8031072208DF8040047
:100F100073218DF8051034208DF8060038208DF8E7
:100F2000070035208DF808005F208DF80900742037
:100F30008DF80A008DF80C108DF80D003B208DF80F
:100F40000E008DF80F00002065228DF810008DF83E
:100F50000B20684606F086F905A006F05FF96846A2
:100F600006F05CF906A006F059F905B000BD0000D6
:100F7000CFEEF1EBE0ED20EAEEE43A2000000000D5
:100F80000D0A0000FEE700002DE9F04FDFF87C922B
:100F90000024DFF87CA287B00E460546A046A9F1E2
:100FA000800B05EBC407D7E9201081F00102024352
:100FB00014D081F0640202437ED081F00302024328
:100FC0007BD081F00B02024378D081F00C02024307
:100FD00075D081F00D01014372D00FE18DA006F0B4
:100FE0001DF98FA006F01AF955F82400002107F02A
:100FF00029FA059055F82400012107F023FA009002
:1010000055F82400022107F01DFA049055F8240039
:10101000032107F017FA039055F82400042107F084
:1010200011FA034655F82400052107F00BFA029047
:1010300055F82400062107F005FA019055F8240020
:10104000072107F0FFF902460398B25C315C05986E
:10105000305C41EA00600099715C4FEA014C0499F0
:10106000715C4CEA01210843F15CDDF808C00B0A11
:10107000184316F80C30DDF804C0090641EA0341B4
:1010800040EA134016F80C3041EA032140EA1360AD
:101090001143C9E90A106AA003F09AFB5DA006F0AB
:1010A000BDF8D7E9A001694AFFF798FE074639461F
:1010B00067A008F01FFB04E00CE025E06BE073E0A4
:1010C0007BE0D9F8280040F26311CDE9008007FBEE
:1010D00001F088E0D7E9A0015C4AFFF77FFEC9E98B
:1010E0000C08D9F828100323CDE9008140F26311E0
:1010F00048430AEB00112246284600F02FFB3146F8
:10110000284605F093FB75E055F82400002107F010
:1011100099F9034655F82400012107F093F900904E
:1011200055F82400022107F08DF9024655F82400F5
:10113000032107F087F9305CF15CB25C40EA0160A2
:101140000099715C090441EA022108438BF8080008
:10115000D7E9A0013D4AFFF741FE01238BF8073094
:10116000D9F828100323CDE9008140F263114843E8
:101170000AEB00112246284600F0F0FA21462846E4
:1011800005F044F937A006F049F89BF808103CA098
:1011900008F0B0FA32E03DA006F040F81B480A2102
:1011A0008BF80380403010E041A006F037F8174874
:1011B0000A218BF80580483007E046A006F02EF89B
:1011C00012488BF804800A21583000F041FDD7E91D
:1011D000A0011E4AFFF702FED9F82810CDE90081D0
:1011E00040F2631148430AEB0011032322462846CC
:1011F00000F0B4FA2146284605F008F9641C202CBA
:10120000FFF4CFAE07B0BDE8F08F000080000020F3
:10121000382D00200D0A2D2D2D2D2D2D0D0A00000D
:10122000CAEEECE0EDE4E03AF3F1F2E0EDEEE2EAF2
:10123000E020E2F0E5ECE5EDE8210D0A0000000019
:101240007E302074696D653B00000000686E0020F0
:10125000CDEEECE5F020EEF2EFF0E0E2E8F2E5EBC7
:10126000FF3A0000D3EFF0E0E2EBE5EDE8E520EF38
:10127000E8F2E0EDE8E5EC202B313256210D0A00D2
:1012800053544152545F42503A000000EDE0F7E8F9
:10129000EDE0E5EC20F2E5F1F220EFF0EEE2E5F032
:1012A000EAF320F8E8EDFB20343835210D0A000080
:1012B000EDE0F7E8EDE0E5EC20F2E5F1F220EFF00B
:1012C000EEE2E5F0EAF320F8E8EDFB205350492187
:1012D0000D0A0000EDE0F7E8EDE0E5EC20F2E5F1C5
:1012E000F220EFF0EEE2E5F0EAF320F8E8EDFB2083
:1012F0004A544147210D0A0010B5094C40F2DC5018
:10130000216B814207D9E06A012804D10020E06204
:1013100004A005F083FF0A4994F82C00887410BDDE
:1013200000000020CFD0CECFC0CB20D1C8C3CDC0CD
:10133000CB205431485A5F4D4B2121210D0A00002A
:10134000882C00202DE9F0410024514800F098FA43
:101350004FF4FA7288B14E481146083800F078FC14
:101360004CA003F035FA4EA005F058FF484828304D
:101370004078BDE8F041FFF7BBBD4548083800F0B4
:101380007FFADFF80C810028A8F1C0081CD041A02A
:1013900003F01EFA49A005F041FF98F8030041460A
:1013A00001280AD08879032809D2401C88F8060051
:1013B0000A21374800F04CFC04E04AA000E04DA0B0
:1013C00005F02CFF97225BE03148183000F058FA06
:1013D000B0B12F481146103000F03AFC2DA003F0B8
:1013E000F7F949A005F01AFF002188F80410084613
:1013F00007F0B2F8BDE8F041014649A008F07AB91B
:101400002348103000F03CFA00283FD021A003F020
:10141000DFF945A005F002FF4D4F4EA0396808F0F6
:1014200069F9524E18E021461CA008F099F950A025
:1014300005F0F4FE04EB840006EB800517A0A96814
:1014400008F03EFA4BA005F0E9FEE86805F0E6FE7C
:101450002CA005F0E3FE641C38688442E3DB02281C
:101460000DD14549F069884206D11EA005F0D6FE8F
:10147000012188F8041002E01EA005F0CFFE992299
:10148000BDE8F0413D493E4804F0D8B8BDE8F081E0
:10149000C00000207E302074696D653B00000000B4
:1014A000CFEEF1FBEBE0E5EC20EAEEE420EFEE20FE
:1014B000F8E8EDE520343835210D0A00CFF0EEE2F2
:1014C000E5F0FFE5EC20F0E5E7F3EBFCF2E0F220DD
:1014D000F2E5F1F2E020F8E8EDFB20343835210D9B
:1014E0000A000000D2E5F1F220EFF0EEE9E4E5EDCC
:1014F000210D0A00D2E5F1F220EDE520EFF0EEE952
:10150000E4E5ED210D0A0000CEEFF0E0F8E8E2E0BE
:10151000E5EC20F8E8EDF3204A544147210D0A009C
:10152000746D70303A000000CFF0EEE2E5F0FFE5B8
:10153000EC20F0E5E7F3EBFCF2E0F220F2E5F1F26B
:10154000E020F8E8EDFB204A544147210D0A000055
:1015500074010020CAEEEBE8F7E5F1F2E2EE20F3C9
:10156000F1F2F0EEE9F1F2E23A00000040AD0020C5
:101570005D200000202D2000DD20A00298590020D1
:10158000C0690020024900200870024800F036BE01
:101590000D000020A86F0020014800F02FBE0000C1
:1015A000A86E0020014800F029BE000068700020ED
:1015B000014800F023BE000008700020024900200E
:1015C0000870024800F01ABE0B000020486F00208F
:1015D00001681823CAB2103AB2FBF3F2054B6FF35D
:1015E0000901032A9B5CC36500D9091D8165084672
:1015F00070470000909A000810B5014600208B69E2
:101600008A6A4FF0C07453B1B3F5005F15D072B160
:10161000012A0CD0022A0AD0032A09D104E01AB107
:10162000012A06D0022A03D1C96AC90100D50120C6
:1016300010BDC96AA142FAD010BD002AF7D0012A14
:10164000F2D0022AF3D0032AF3D010BD30B50468DB
:10165000256825F480252560046863608368402B35
:10166000036803D099600068C26030BD9A6000686A
:10167000C16030BD30B5044685B00D460C4801F060
:10168000AFF8012004A9CDE90010034602908DF8BF
:101690000C5003AA2146064801F00CFB044801F057
:1016A00085F89DF8100005B000F0010030BD000085
:1016B000F40100207CB5044616460D460A4801F0A8
:1016C0008FF84FF47A708DF8045000908DF8056013
:1016D000022301AA2146044801F030FC04460248D6
:1016E00001F064F820467CBDF401002000B585B00F
:1016F000104801F075F8F9208DF80C00A6214FF480
:101700007A7301220B4801F02FF950B9012004A986
:10171000CDE9001003460290A62103AA054801F076
:10172000C9FA044801F042F89DF8100005B000F035
:10173000010000BDF4010020704700000249086567
:10174000086D0028FCD1704700000020002101E056
:10175000491C89B28142FBD3704700002DE9F0415A
:1017600000EBC205DDE90676D5E9A002C1E9060273
:10177000886A002440281CD2D1F82CC0421C4CF1AD
:10178000000CC1E90A2C00EB400202EBC00001EBA7
:10179000C002A4465363C2E9106CD5E96003C2E9F4
:1017A0000E030120106382F84870086A293008622D
:1017B00003E0012402A005F031FD2046BDE8F081E0
:1017C000EDE5F220ECE5F1F2E020E4EBFF20EAE2C7
:1017D000E8F2E0EDF6E8E9210D0A000010B501207D
:1017E00000F0FEFE01490120087010BDF00000204D
:1017F00010B54FF4805000F0F3FE0249012008704C
:1018000010BD00000801002010B5022000F0E8FE25
:1018100001490120087010BD0000002010B508200B
:1018200000F0DEFE01490120087010BD010000201B
:1018300010B5402000F0D4FE01490120087010BD11
:10184000F10000207047000070B50C4C012211031C
:10185000204600F0A0FF012255032946204600F053
:101860009AFF0120FFF76AFF00222946204600F078
:1018700092FFBDE870400120FFF760BF0004024006
:101880000178012901D0002070470021017001205A
:1018900070472DE9FC478946C4080646D1B2012CA1
:1018A00021D0100A40EA0360C5B2022C1ED0100CF1
:1018B00040EA0340C0B2032C1DD0120E42EA0322BC
:1018C000D2B24FEA1368042C1CD0DFB2052C22D010
:1018D000C3F3072C062C29D0C3F30743072C32D0BF
:1018E000082C3FD04EE08DF803104BE08DF802102D
:1018F0008DF8035046E08DF801108DF802508DF8F8
:1019000003003FE08DF800108DF801508DF80200C3
:101910008DF8032036E08DF800108DF801508DF819
:1019200002008DF803208DF804702BE08DF8001074
:101930008DF801508DF802008DF804708DF80320A9
:101940008DF805C01EE08DF800108DF801508DF85F
:1019500004708DF802008DF805C08DF803208DF815
:1019600006300FE08DF800108DF804708DF80150EE
:101970008DF805C08DF802008DF806308DF8032033
:101980008DF8078049F0800007F0EAFD641EE5B29B
:1019900000246F4605E0281B385C07F0E1FD641C5D
:1019A000E4B2B4EBD60FF6D30020BDE8FC8700000C
:1019B0002DE9F04F04460021806889468B4600BA25
:1019C00020F0FF01E07A627B0143207B12040006D5
:1019D00041EAE071104341EAE271A27B89B0120250
:1019E000104341EAE271E27B104341EAD2718A4A34
:1019F000FFF7F4F921884ABA40F263114843874956
:101A0000069001EB001082460280618849BA41804D
:101A10006168E27909BA21F0FF0111438160A16890
:101A2000627B09BA21F0FF03E17A12040B43217BA8
:101A3000090643EAE173114343EAE273A27B12020F
:101A4000114343EAE273E27B114343EAD273C0E9F4
:101A500004132169627D09BA21F0FF03E17C1204BD
:101A60000B43217D090643EAE173114343EAE27324
:101A7000A27D1202114343EAE273E27D114343EA7D
:101A8000D273C0E90613A169E27E09BA21F0FF0111
:101A900011430162E169E27F09BA21F0FF011143BC
:101AA0004162216A09BA21F0FF0394F823100B4325
:101AB00094F8241094F82520090643EAE1731204EF
:101AC000114343EAE27394F82620DFF854811202AE
:101AD000114343EAE27394F82720114343EAD27397
:101AE00081622826CAF82C308AE0A01909EB490542
:101AF000016809BA21F0FF02C1780A4305EBC90168
:101B00000AEBC1052A634168C27909BA21F0FF01D5
:101B100011436963816809BA21F0FF02C17A0A435F
:101B2000017B0B06417B42EAE37209040B4342EA64
:101B3000E172817B09020B4342EAE172C17B0B43F4
:101B400042EAD172C5E90E32016909BA21F0FF02F9
:101B5000C17C0A43017D0B06417D42EAE372090420
:101B60000B4342EAE172817DC07D09020B4342EAE8
:101B7000E172034342EAD072C5E91032D8F800009E
:101B80000790C8F80400401E0027C8F82000F0198C
:101B90002449205C04F0FCFC7F1C182FF7D300279D
:101BA0000AE0F0192044EA19017E82F84810007E0C
:101BB0001C4904F0EDFC7F1C286BB842F1D8D8F822
:101BC00000003E44401CC8F82400D5E90E01CDE9D0
:101BD0000401D5E91001CDE90201DAF81010686BB3
:101BE000CDE9000110490698104A01EB00100D499B
:101BF0001836079B04F020FC19F101094BF1000B8A
:101C0000DAE90A23B9EB02017BEB0300FFF46DAFC5
:101C100009B0BDE8F08F0000686E0020C870002099
:101C20009869002098590020382D0020C0690020B4
:101C30000648416BB1F5167F06D900214163816BDF
:101C4000491C816301218170704700000000002061
:101C500010B5002202700C460A4B416000E0521C95
:101C600053F822100029FAD143F8220006A005F00B
:101C7000D5FA0FA002F0ACFD2146BDE810400FA040
:101C800007F038BDB82C0020CFEEE4EDE8ECE0E53D
:101C9000EC20F4EBE0E320EEF2EBEEE6E5EDEDEE2A
:101CA000E3EE20E7E0E4E0EDE8FF210D0A000000AC
:101CB0007E302074696D653B0000000074696D65BD
:101CC0006F75743A000000002DE9F047002480464B
:101CD00025464FF48049114E4FF4005718E049460D
:101CE000304600F053FD690801EBC075012239460A
:101CF000304600F050FD0120FFF720FD002239465C
:101D0000304600F048FD0120FFF718FD641CA4B226
:101D10004445E4D32846BDE8F087000000040240B3
:101D20007047000078B50024009490F83C20012A08
:101D300019D0012280F83C200A6807250368092A87
:101D400013D9DE680A3A02EB42029540AE43DE60E8
:101D50000A788B680A3A02EB420293400268D5681F
:101D60002B43D36010E0022078BD1E6902EB4202D3
:101D70009540AE431E610A788B6802EB42029340A5
:101D8000026815692B4313614A681F25072A13D27D
:101D900003685E6B521E02EB82029540AE435E63A7
:101DA0000A8893B20A79521E02EB820293400268BB
:101DB000556B2B43536327E003680D2A12D21E6B29
:101DC000D21F02EB82029540AE431E630A8893B293
:101DD0000A79D21F02EB820293400268156B2B43F3
:101DE000136311E0DE6A0D3A02EB82029540AE43C6
:101DF000DE620A8893B20A790D3A02EB82029340BE
:101E00000268D56A2B43D3621B4B0568194A9D4271
:101E10000AD10D68122D07D1556825F400055560CB
:101E2000556845F48005556005689D421DD1134DE8
:101E30000B68AB4201D0112B17D1536823F48003F8
:101E40005360536843F4000353600968A9420CD1FE
:101E50000B490C4A0968B1FBF2F101EB8101490021
:101E600000E0491E00910029FBD180F83C40002091
:101E700078BD000000230140002001401200001046
:101E80008401002040420F000248816C491C81649B
:101E900070470000000000207047704770B504468E
:101EA00000680168C1F340024168C1F3401152B3B8
:101EB00049B3216CC90603D4216C41F4007121643B
:101EC000816811F0405F17D1217EA9B9C16A11F470
:101ED000700F02D0816849050ED4416821F02001BD
:101EE0004160206C20F480702064206CC00403D416
:101EF000206C40F0010020642046FFF7C5FF2168F8
:101F00006FF012000860206801684268C1F3800128
:101F1000C2F3C01289B382B3216CC90603D4216C09
:101F200041F400512164816811F4401F1ED1816B7E
:101F300011F4401F02D08168490517D44168490552
:101F400014D4816811F0405F10D1217E71B94168CD
:101F500021F080014160206C20F480502064206CCE
:101F6000C00503D4206C40F0010020642046FFF738
:101F7000D7FE21686FF00C00086020680168426895
:101F8000C1F30001C2F3801271B16AB10068C007E9
:101F90000AD0206C40F480302064204600F046F8DF
:101FA00021686FF001000860206801684268C1F391
:101FB0004011C2F3806200290DD0002A0BD0616C61
:101FC00041F0020161646FF0200505602046FFF7D3
:101FD00064FF2068056070BD70B504004FF0000616
:101FE00003D0206C002510B107E0012070BD204611
:101FF00000F01EF8656484F83C50206CC00610D4D4
:10200000206C20F4885040F0020020642046FEF747
:102010003DFD6564206C20F0020040F0010020646A
:1020200000E0012684F83C50304670BD7047000047
:10203000F0B587B0064614216846FEF711F920492D
:102040003068884239D11F480025016841F4807109
:102050000160006800F4807005901A481438016827
:1020600041F0010101600068012700F001000097C4
:1020700005900320CDE901056946134800F0BCFA3C
:10208000134C1248C4E900050015A560C4E90350CB
:10209000400060618000A0614011E06100022062A8
:1020A00004206062C4E90A752046256300F076F9D1
:1020B00008B1FFF7C7FBB463A66307B0F0BD00002B
:1020C00000200140443802400000024010640240F9
:1020D000A86E0020F8B500230446009390F83C0059
:1020E000012807D0012084F83C0020688568ED07AE
:1020F00002D011E00220F8BD856845F00105856039
:102100002E482F4D0068B0FBF5F000EB400000E0DA
:10211000401E00900028FBD120688568ED074AD05A
:10212000256C40F20166B54345F48075256440682E
:10213000400505D5206C20F4005040F48050206408
:10214000206CC00404D5606C20F00600606400E0E0
:10215000636484F83C30A36B1B481A4DD863A36BAF
:102160001A481864A36B1A48D86423686FF02200D9
:1021700018602068436843F0806343602068836888
:1021800043F480738360134620680A46A66B00F10F
:102190004C01304600F06CF96868C006206802D037
:1021A0000C49884207D1816811F0405F03D18168F2
:1021B00041F0804181600020F8BD000084010020D2
:1021C00040420F0000230140E5090008690A0008A9
:1021D000530A00080020014090F83510022903D06E
:1021E0008021416501207047052180F83510006885
:1021F000016821F001010160002070472DE9F843DA
:1022000004464FF00009CDF8009063484FF4165192
:10221000A56D0068B0FBF1F72E6894F85C200821EA
:1022200001FA02F030420FD02068026852070BD545
:10223000026822F00402026094F85C008140A96008
:10224000606D40F00100606594F85C104FF001088B
:1022500008FA01F0304208D021684969090604D51E
:10226000A860606D40F00200606594F85C10042086
:102270008840304208D021680968890704D5A860E1
:10228000606D40F00400606594F85C101020884098
:10229000304218D021680968090714D5A860206861
:1022A0000168490304D50068000308D5A16C07E064
:1022B0000168C90503D4016821F008010160216C9F
:1022C00009B12046884794F85C10202088403042AD
:1022D00031D021680968C9062DD5A86094F8350069
:1022E00005282068016806D0490347D50068000327
:1022F0001DD4616C1CE021F0160101602068416969
:1023000021F080014161206C08B9A06C20B12068E7
:10231000016821F00801016094F85C103F208840BA
:10232000A86084F8349084F83580216D1FE0E16B5B
:1023300009B120468847606D00282BD0606DC0072A
:1023400014D0052084F835002068016821F00101CF
:1023500001600098401C0090B84203D820680068D3
:10236000C007F6D184F8349084F83580E16C0029F8
:1023700010D001B02046BDE8F04308470168C90508
:10238000D5D4016821F01001016084F8349084F8FC
:102390003580CCE7BDE8F883840100202DE9F041C9
:1023A000044600F0FDF905465CB1002684F834606F
:1023B000022084F835002068016821F001010160E5
:1023C0000DE00120BDE8F08100F0EAF9401B05288E
:1023D00005D920206065032084F83500F2E72068E5
:1023E0000068C007F0D121680A6820480240D4E99B
:1023F00001031843D4E903352B4318436369184399
:10240000A3691843E3691843236A18431043626AB7
:10241000042A03D1D4E90B231A431043086020682F
:102420004069656A20F0070128460D43012704280A
:102430000CD1A06A0543E06A40B12046FFF7DCF802
:1024400020B14020606584F83570BAE720684561A6
:102450002046FFF7BDF894F85C203F219140816051
:10246000666584F835700020ACE700003F8010F00E
:102470002DE9F0410446866D90F8340000250128CE
:102480000DD0012084F8340094F835700020012F1D
:1024900007D084F8340002252846BDE8F0810220E8
:1024A000FBE7022784F8357060652046FFF7CEF819
:1024B00094F85C103F208840B0602068016841F0CB
:1024C000160101602068416941F080014161206C82
:1024D00020B12068016841F00801016020680168AE
:1024E00041F001010160D7E72DE9F04F8946DFF89F
:1024F000D0A000214FF0010B4FF00F0C0BFA01F6AA
:1025000009EA0603B34255D121F003045444D4F838
:1025100008288D072F0F0CFA07F505EA0208294A4B
:10252000904201D1002214E0274A904201D10122B9
:102530000FE0264A904201D102220AE0244A90424A
:1025400001D1032205E0234A904201D1042200E098
:102550000722BA40424514D1D4F80828AA43C4F847
:1025600008281D4A14689C431460121D14689C437B
:102570001460121D14689C431460121D14689C435F
:10258000146003684C000322A24093430360CB080D
:1025900000EB83031D6A4C07E70E0CFA07F4A54312
:1025A0001D628368934383604368B3434360C36899
:1025B0009343C360491C1029A0D3BDE8F08F0000ED
:1025C00000300140000002400004024000080240C8
:1025D000000C024000100240003C01407047000027
:1025E000044910B50A68024202D00860FFF7F6FFFE
:1025F00010BD0000143C01402DE9F84FDFF86C914C
:10260000002209F1040A0AF1040B4FF00F080BF144
:10261000040E01260B6896403340B34271D14C68DA
:10262000022C01D0122C11D1D40800EB84073D6A92
:102630005407E40E08FA04FC25EA0C05D1F810C092
:102640000CFA04FC4CEA050CC7F820C007685400DB
:10265000032591F804C0A5400CF0030CAF430CFA1D
:1026600004FC4CEA070CC0F800C04F68012F05D0ED
:10267000022F03D0112F01D0122F11D18768D1F86A
:102680000CC0AF430CFA04FC4CEA070CC0F808C0BD
:102690004768B7430E79C6F3001696403E4346603E
:1026A000C668AE438D68A5403543C5604C68E400FC
:1026B00056D52F4C256845F480452560246822F0C6
:1026C000030504F4804400942A4C2E19D6F80878A7
:1026D0009407250F08FA05F4A743274CA04201D11F
:1026E000002415E0254CA04201D1012410E0244C27
:1026F000A04201D102240BE0224CA04202D10324CB
:1027000006E02DE0204CA04201D1042400E0072483
:10271000AC403C43C6F80848D9F800404D464E68E6
:102720009C43F60300D51C432C60DAF80040554664
:102730004E689C43B60300D51C432C60DBF8004078
:102740005D464E689C43F60200D51C432C60DEF8C3
:10275000004075464E689C43B60200D51C432C6071
:10276000521C102AFFF455AFBDE8F88F003C014021
:1027700044380240003001400000024000040240A2
:1027800000080240000C02400010024000690840AE
:1027900000D0012070470AB1816170470904FBE74E
:1027A00001488068704700007801002010B50400DF
:1027B00013D0242084F83D002068016821F0010135
:1027C0000160204600F050FC0020206484F83D00A9
:1027D00044F8300FA073207310BD012010BD00001D
:1027E00070B5040025D094F83D00002520B984F888
:1027F0003C50204600F04CFC242084F83D0020682A
:10280000016821F0010101602068016841F4004184
:1028100001602068016821F40041016000F0A4FD1E
:102820004D4B6168994201D84C4900E04C498842BF
:1028300001D2012070BD4B492268B0FBF1F156680E
:1028400026F03F060E43566062689A4206D94FF45E
:10285000967251434FF47A72B1FBF2F12268491C2F
:10286000166A26F03F06314311626168994210D81A
:102870004900401EB0FBF1F2521CC2F30B02042AC5
:1028800001D2042022E0B0FBF1F0401CC0F30B00A9
:102890001CE0A268F2B301EBC10303EB0116431E77
:1028A000B3FBF6F35B1C43F480431B0549D092B3A2
:1028B00001EBC10202EB0111401EB0FBF1F0401C24
:1028C000C0F30B0040F4804040F400402168CA6926
:1028D0004CF6FF739A431043C861D4E907100143D3
:1028E0002068026822F0C00211430160D4E90301AC
:1028F00001432068826848F2FF339A4311438160A4
:10290000D4E9051001432068C26822F0FF02114398
:10291000C16001E00EE016E02068016841F00101AD
:1029200001602564202084F83D00256384F83E5032
:10293000002070BD01EB4106431EB3FBF6F35B1CA8
:10294000B3E70120C2E701EB4101401EB0FBF1F00B
:10295000401CC0F30B00B7E7A086010080841E0076
:1029600000093D0040420F002DE9FF4F81B01F4696
:1029700093460446FFF714FF054694F83D000126F0
:1029800020287DD11923012250492046009501F0CD
:102990007BFD002874D194F83C00012870D0012000
:1029A00084F83C0020680168C90703D1016841F040
:1029B000010101602068016821F4006101602420A8
:1029C00084F83D004FF0000AC4F840A04048E0629F
:1029D0004FF020092068016841F4807101603B4696
:1029E00000224FF001112046009501F04DFD50B13D
:1029F00020680068C00502D54FF4007020640320F1
:102A000005B0BDE8F08F0298216800F0FE00086173
:102A1000FFF7C6FE0546206841694069C1F34001E1
:102A2000C0F380204FF0A0080EE0FFF7B9FE401B76
:102A3000B84200D80FB984F83D80206841694069E8
:102A4000C1F34001C0F3802094F83D20A02A02D0B9
:102A500009B90028E9D084F83D9020684169C9434C
:102A6000890717D4016841F4007101602068564657
:102A7000416980691923012214492046009500E02C
:102A800022E001F001FDA8B984F83D9084F83C6093
:102A90000020B5E7016841F40071016021686FF41E
:102AA000806048611923012208492046009501F001
:102AB000EBFC08B10120A3E7761C5E458AD384F8BD
:102AC0003D9084F83CA0F5E7022099E70200100051
:102AD0000000FFFF2DE9F84F984617468A46044646
:102AE000DDF82890FFF75CFE054694F83D002028AD
:102AF00075D1192301226C492046009501F0C4FCD0
:102B00000028F5D194F83C00012868D0012084F811
:102B10003C0020680168C90703D1016841F0010148
:102B200001602068016821F400610160222084F8BE
:102B30003D00102084F83E00002626646762A4F859
:102B40002A80608D20855948E0622B464A465146CE
:102B5000204601F0AFFB002878D1208D544F68B19A
:102B6000012814D002282068016816D041F4806141
:102B70000160206841698069009087E020684169B0
:102B800081690091016841F4007101607EE0206874
:102B9000016821F480610160F0E721F48061016047
:102BA0002068016841F40061E2E7032848D8012861
:102BB0000AD0022814D04B46002239462046009500
:102BC00001F062FCD8BB27E02A464946204601F0C6
:102BD000DBFCA0BB20680069616A08704DE061E021
:102BE0004B46002239462046009501F04DFC30BB93
:102BF0002068016841F40071016020680069616A21
:102C00000870606A401C6062218D491E2185618DBB
:102C1000491E618521682EE02068016821F48061E9
:102C2000016020680069616A0870606A401C606227
:102C3000208D401E2085608D401E6085D0E705E018
:102C40002A464946204601F09FFC10B10120BDE80C
:102C5000F88F20680069616A0870606A401C6062D1
:102C6000218D491E2185618D491E618521684A6932
:102C7000D24352070AD409690170606A401C60623D
:102C8000208D401E2085608D401E6085208D00288F
:102C90008BD1202084F83D0084F83E6084F83C60AD
:102CA0000020D4E70220D2E7020010000000FFFF5E
:102CB000040001002DE9FF4F81B01F46DDE90EBA87
:102CC00091460446FFF76CFD054694F83D00202828
:102CD0007ED11923012296492046009501F0D4FBAC
:102CE0000028F5D194F83C00012871D0012084F827
:102CF0003C0020680168C90703D1016841F0010167
:102D000001602068016821F400610160212084F8DD
:102D10003D004FF0100884F83E8000262664C4F879
:102D200024906785608D2085824FE7622B46204680
:102D3000109A029901F034FB206841698069009083
:102D400034E02A462046109901F053FC40B1206C33
:102D5000042804D12068016841F4007101609EE0FC
:102D6000606A216800780861606A401C6062618D59
:102D7000491E6185218D491E89B2218522685369CA
:102D8000DB435B070BD451B100781061606A401CD3
:102D90006062608D401E6085208D401E20852A4621
:102DA0002046109901F04AFB0028D0D1208D002840
:102DB000C7D1222084F83D0084F83E802664C4F800
:102DC00024B0A4F82AA0608D2085E7622B4600E09D
:102DD000ABE02046109A029901F06CFAF0BB208D0E
:102DE000554F68B1012814D002282068016816D018
:102DF00041F480610160206841698069009088E049
:102E00002068416981690091016841F400710160A5
:102E10007FE02068016821F480610160F0E721F41F
:102E2000806101602068016841F40061E2E70328E5
:102E30004DD8012825D00228109B00954FF00002A4
:102E40003946204628D001F01FFB2068016821F494
:102E50008061016020680069616A00E01FE008701D
:102E6000606A401C6062208D401E2085608D401E7F
:102E700060850095002239462046109B01F004FB36
:102E800011E02A462046109901F07EFB38B92068EF
:102E90000069616A087033E001F0F6FA18B10120A8
:102EA00005B0BDE8F08F2068016841F40071016051
:102EB00020680069616A0870606A401C6062218D48
:102EC000491E2185618D491E6185216816E02A46CB
:102ED0002046109901F058FB20680069616A08706B
:102EE000606A401C6062218D491E2185618D491EEA
:102EF000618521684A69D24352070AD40969017081
:102F0000606A401C6062208D401E2085608D401EDE
:102F10006085208D00288AD1202084F83D0084F827
:102F20003E6084F83C600020BAE70220B8E7000069
:102F3000020010000000FFFF040001002DE9F84F1F
:102F40001F4690468A460446DDF82890FFF728FC85
:102F5000054694F83D0020287FD1192301224049DD
:102F60002046009501F090FA002876D194F83C00B4
:102F7000012872D0012084F83C0020680168C9074C
:102F800003D1016841F0010101602068016821F46A
:102F900000610160212084F83D00102084F83E008B
:102FA00000262664C4F824806785608D20852D481E
:102FB000E0622B464A465146204601F0F1F990B9AD
:102FC000206841698069009036E02A4649462046DB
:102FD00001F00FFB50B1206C042804D12068016877
:102FE00041F4007101600120BDE8F88F606A21683A
:102FF00000780861626A521C6262608D401E6085C2
:10300000208D401E80B2208521684B69DB435B0721
:103010000BD450B110780861606A401C6062608D0A
:10302000401E6085208D401E20852A464946204648
:1030300001F004FA0028CED1208D0028C5D154F823
:103040003D0B016841F400710160202004F81E0965
:10305000E67766770020C7E7FFE70220C4E70000B5
:10306000020010000000FFFF00680649884208D1F6
:103070000548016821F400110160C0210348FFF7F1
:1030800033BA704700540040403802400004024008
:1030900010B586B0044614216846FDF7E1F81349DF
:1030A0002068884220D11248016841F00201016085
:1030B0000068694600F002000590C02000901220D0
:1030C00001900120029003200390042004900948FD
:1030D000FFF792FA06481030016841F400110160D0
:1030E000006800F40010059006B010BD00540040C8
:1030F00030380240000402400248816802781144DE
:1031000081607047780100200B4810B5016841F4D8
:1031100000710160016841F480610160016841F45F
:1031200080710160032000F06FF8002000F006F8C5
:1031300000F024F8002010BD003C024070B50D4D99
:1031400004464FF47A712878B1FBF0F00A49096817
:10315000B1FBF0F000F071FD48B9102C07D200224D
:103160002146501E00F030F800206C6070BD012038
:1031700070BD000078010020840100200A4808B5D5
:10318000016841F480410160006800F480400090D3
:103190000548001F016841F080510160006800F09F
:1031A0008050009008BD000044380240002809DB30
:1031B00000F01F02012191404009800000F1E02051
:1031C000C0F8001170470000F0B40E4B1B68C3F349
:1031D0000223C3F10704042C00D904241D1D072D6C
:1031E00001D2002300E0DB1E012606FA04F56D1E65
:1031F0000D409D409E40761E164045EA0601F0BCFB
:1032000004F064BB0CED00E0064A00F00701106812
:103210004FF6FF03184040EA0120034908431060BD
:10322000704700000CED00E00000FA052DE9F047C2
:103230000D46040065D0DFF81491D9F80000EFB214
:1032400000F00F00A84207D289F80070D9F80000FA
:1032500000F00F00A84254D120683D4E810712D5DE
:10326000400703D5306840F4E05030602078000714
:1032700003D5306840F4604030603068A16820F0C9
:10328000F000084330602078C0072DD030496068D6
:103290000839012812D0022813D0032811D0096858
:1032A000890700292DDA316821F0030101433160DB
:1032B000FFF776FA804641F2883A0EE00968890302
:1032C000EFE709688901ECE7FFF76AFAA0EB08016C
:1032D000514502D90320BDE8F0873068616800F0ED
:1032E0000C00B0EB810FEFD1D9F80010484601F087
:1032F0000F01A94207D90770006800F00F00A8422B
:1033000001D00120E7E72078400705D53068E16863
:1033100020F4E050084330602078000706D530687C
:10332000216920F4604040EAC100306000F03CF8C0
:103330003168084AC1F30311515CC840064908606E
:103340000020FFF7FBFE0020C5E70000003C024024
:1033500008380240989A000884010020014800685B
:10336000704700008401002004480549006809688E
:10337000044AC1F38221515CC84070478401002097
:1033800008380240A89A00080448054900680968FE
:10339000044AC1F34231515CC840704784010020A7
:1033A00008380240A89A0008104810B5006810F0CC
:1033B0000C010F4818D0042916D0082914D10B4C41
:1033C000241F216801F03F02216821680023C1F316
:1033D0008811A1FB0001FCF7FBFE2168C1F301414C
:1033E000491C4900B0FBF1F010BD00000838024054
:1033F0000024F4002DE9F84F040073D02078BD4D6F
:10340000C00748D0BB4808300168C1F381010129D9
:1034100008D00068C0F3810002280AD1281D006886
:10342000400206D52868800335D560680028E4D0BE
:1034300031E06068B0F5803F10D0B0F5A02F28686B
:1034400010D020F480302860286820F48020286084
:103450006068A0B1FFF7A4F906460CE0286840F4C4
:103460008030F4E740F480202860F7E7FFF798F910
:10347000801B642872D828688003F7D50BE0FFF71B
:103480008FF9064604E0FFF78BF9801B6428F1D81A
:1034900028688003F7D42078DFF85C9280074FF02B
:1034A000000A3ED593480830016811F00C0F09D08E
:1034B0000068C0F3810002280BD18E48001D00680F
:1034C000400206D42868800715D5E068012809D194
:1034D00011E0E068B8B10120C9F80000FFF760F919
:1034E000064605E003E1FFF75BF9801B0228C1D81F
:1034F00028688007F7D52868216920F0F80040EA9D
:10350000C10028600DE0C9F800A0FFF749F90646A0
:1035100004E0FFF745F9801B02281FD828688007C0
:10352000F7D42078000722D5724F74496069743748
:1035300070B101200860FFF733F9064604E0FFF799
:103540002FF9801B022809D838688007F7D50EE0CC
:10355000C1F800A0FFF724F9064605E081E0FFF777
:103560001FF9801B02287CD838688007F7D42078A0
:10357000400769D5DFF87CB14FF000080BF1400B34
:10358000DBF80000C0000CD4DBF8001041F08051E3
:10359000CBF80010DBF800004FF0010800F080507D
:1035A0000090574F3868C0050FD4386840F48070D9
:1035B0003860FFF7F5F8064604E0FFF7F1F8801BE6
:1035C00002284ED83868C005F7D54A4FA068703732
:1035D00001280FD00528386810D020F0010038608D
:1035E000386820F004003860A068B0B1FFF7D8F860
:1035F00006460EE0386840F00100F4E740F00400B1
:103600003860F7E7FFF7CCF8811B41F28830814240
:1036100065D838688007F5D50DE0FFF7C1F8064694
:1036200006E0FFF7BDF8811B41F28830814256D891
:1036300038688007F5D4B8F1000F05D0DBF800102A
:1036400021F08051CBF80010A069C8B32949083196
:103650000968C1F38101022949D00228504607D0E8
:1036600000E03CE0C9F86000FFF79AF8044639E052
:103670004F46C9F86000FFF793F8064604E0FFF7ED
:103680008FF8801B02282AD828688001F7D4D4E953
:1036900007010843A16A1B4A490802EB0141626A1B
:1036A00041EA8211084394F82C1040EA0161114864
:1036B000001D016001203866FFF772F8044605E03E
:1036C00013E0FFF76DF8001B022808D82868800176
:1036D000F7D50AE0FFF764F8001B022802D903209F
:1036E000BDE8F88F28688001F4D40020F8E70120B5
:1036F000F6E700000038024000004742800E4742D3
:10370000007000400000FFFF7047000038B50168FE
:1037100004464A688868C043430606D5C30704D1F7
:10372000D3435B0601D4216C05E0830708D4D3435F
:103730001B0605D4616C01B02046BDE83040084747
:10374000830603D5430601D5C30551D4D3439B0655
:103750004ED443060AD494F85130032B49D0636DFC
:1037600043F004036365CB688B680093830609D438
:10377000636D43F0010363658B6800930B6823F06E
:1037800040030B60C00506D4606D40F00800606522
:10379000206880680090606D002829D0206841680A
:1037A00021F0E0014160012084F85100900701D42C
:1037B000D00722D02068416821F003014160114DFB
:1037C000E06C40B10565E06CFEF706FD18B1606D78
:1037D00040F040006065A06C002809D00565A06C31
:1037E000FEF7FAFC002803D0606D40F040006065F1
:1037F00038BDC8688868009038BD2046FFF784FF50
:1038000038BD0000B965000870B5040005D000257A
:10381000A56294F8510010B106E0012070BD84F853
:103820005050204600F030F8022084F85100206803
:10383000016821F040010160D4E901010843D4E9A5
:1038400003121143084361690843218B01F400719D
:103850000843E1690843216A0843A16A08432168D3
:103860000860A069042101EA1040616A08432168E8
:1038700048602068C16921F40061C161656501206B
:1038800084F85100002070BD2DE9F04F87B08046CC
:1038900014216846FCF7E4FC624C6149D8F800004A
:1038A0000027DFF88091143C022503264FF0050A1B
:1038B0004FF0060B884218D1D9F8001041F480511E
:1038C000C9F80010D9F8000000F480500590206875
:1038D00040F0010020602068694600F0010005907A
:1038E000E0208DE8A10050481AE04E494F4A091FD8
:1038F000904218D1086840F480400860086800F4DD
:1039000080400590206840F00200206020686946F1
:1039100000F0020005904FF470408DE8A10044488B
:10392000CDE9036A1AE0434A904219D1086840F48D
:1039300000400860086800F400400590206840F0EE
:10394000040020602068694600F0040005904FF4F0
:10395000E0508DE8A100CDE9036B3748FEF74CFE3F
:103960003649D8F8000088421BD1D9F8001041F43C
:103970000051C9F80010D9F8000000F4005005907B
:10398000206840F0100020602068694600F01000B8
:10399000059064208DE8A100CDE9036A2848FEF770
:1039A0002BFE2849D8F80000884236D1D9F80010FB
:1039B00041F48011C9F80010D9F8000000F480101B
:1039C0000590206840F002002060206800F00200AE
:1039D0000590206840F01000206020685C4600F0F0
:1039E0001000059046F210008DE8A100CDE9036BB0
:1039F00069461348FEF700FE01208DE8A100CDE9DD
:103A0000036469460A48FEF7F7FD00221146552077
:103A1000FFF7DAFB5520FFF7C9FB07B0BDE8F08FD1
:103A200000300140443802400000024000380040AD
:103A300000040240003C0040000802400034014005
:103A400000100240005001402DE9F84F044690F864
:103A5000500001250A9E1F4692468B464FF00008F3
:103A600001280ED0012084F85000FEF799FE81460F
:103A700094F85100616801280CD0B1F5827F07D11C
:103A800002E00220BDE8F88FA16809B9042801D03E
:103A90000220B6E0BBF1000F27D0BAF1000F24D00E
:103AA0001FB394F85100042802D0052084F8510077
:103AB00000206065C4F838A0E787A787C4F830B055
:103AC000E786A7862064606420680168490603D4FD
:103AD000016841F040010160E068B0F5006F606886
:103AE00005D0E8B3012F43D079E0012089E008B187
:103AF000012F34D1206B21680088C860206B801CA6
:103B00002063E08E401EE08629E0206881688907F6
:103B10000DD5E18E59B1012D09D1216B0988C16004
:103B2000206B801C2063E08E401EE086002520680C
:103B30008168C9070BD0E18F49B1C068A16B0880CB
:103B4000A06B801CA063E08F401EE0870125FEF77C
:103B500027FEA0EB0900B04201D3701C50D100E059
:103B600006E0E08E0028D0D1E08F0028CDD13CE0E7
:103B7000206B216800780873206B401C2063E08E66
:103B8000401EE0862BE02068816889070DD5E18E14
:103B900059B1012D09D1216B09780173206B401CAB
:103BA0002063E08E401EE086002520688168C907FA
:103BB0000BD0E18F49B1C068A16B0870A06B401CAD
:103BC000A063E08F401EE0870125FEF7E9FDA0EB32
:103BD0000900B04202D3701C01D011E086B1E08E22
:103BE0000028D0D1E08F0028CDD14A46314620466A
:103BF00002F0EAFC38B120204FF00108606508E0CF
:103C00000320804605E0A06818B92068C168806874
:103C10000090012084F85100002084F850004046B4
:103C200030E74FF0E0210428086903D020F00400B9
:103C30000861704740F00400FAE710B5401EB0F18B
:103C4000807F01D3012010BD4FF0E02460610F217F
:103C5000601703F03BFE0020A061072020610020D8
:103C600010BD70477047704770B504460068016921
:103C70004FF00005C943890715D4C168C9438907B6
:103C800011D4E91E01610120207720688069800736
:103C9000204602D0FFF7E7FF04E000F098F8204646
:103CA00000F096F8257720680169C943490717D4C1
:103CB000C168C943490713D46FF0040101610220B0
:103CC00020772068806910F4407F204602D0FFF7FB
:103CD000CAFF04E000F07BF8204600F079F8257771
:103CE00020680169C943090716D4C168C943090797
:103CF00012D46FF008010161042020772068C069A8
:103D00008007204602D0FFF7AEFF04E000F05FF826
:103D1000204600F05DF8257720680169C943C9068F
:103D200017D4C168C943C90613D46FF010010161EB
:103D3000082020772068C06910F4407F204602D018
:103D4000FFF791FF04E000F042F8204600F040F851
:103D5000257720680169C943C90708D1C168C943EB
:103D6000C90704D1891E0161204600F032F820689D
:103D70000169C943090609D4C168C943090605D4C4
:103D80006FF0800101612046FFF76BFF2068016939
:103D9000C943490609D4C168C943490605D46FF02F
:103DA00040010161204600F015F820680169C9430F
:103DB00089060BD4C168C943890607D46FF0200176
:103DC00001612046BDE87040FFF74CBF70BD7047F1
:103DD000704770477047704710F8391F40780843A4
:103DE0007047000070B5026804461068D1685369D6
:103DF00010F00F0F51D003F0010501F49076354318
:103E00005DD0C20705D0CA0503D5E26B42F00102BE
:103E1000E263420705D5DA0703D0E26B42F0020203
:103E2000E263820705D5DA0703D0E26B42F00402B1
:103E3000E263020705D5DA0703D0E26B42F008021D
:103E4000E263E26B002A34D0800604D5880602D5EE
:103E5000204603F0EEFA20684069E16BC0F3801061
:103E600001F008010143204624D003F0CBFA20687A
:103E7000416949061AD5416921F040014161606BF1
:103E8000A0B11B490165606BFEF7A6F9002810D0B0
:103E9000606B016DBDE87040084783060FD58B0647
:103EA0000DD52046BDE8704003F0C3BA2046FFF7A9
:103EB00092FF70BDFFF78FFF0020E06370BD030627
:103EC00006D50B0604D52046BDE8704003F052BC71
:103ED0004006F3D54806F1D5D168204621F04001CF
:103EE000D160202184F8391000F0CAF970BD0000BB
:103EF000D572000870B5040004D094F8390000258C
:103F000010B106E0012070BD84F83850204600F062
:103F100023F8242084F839002068C16821F4005176
:103F2000C160204603F0D0FA2068016921F4904175
:103F300001612068416921F02A0141612068C1685E
:103F400041F40051C160E563202084F8390084F811
:103F50003A00002070BD00002DE9F04F87B0044604
:103F600014216846FCF77CF97448DFF8CC811438DA
:103F7000D4F800C00025DFF8C491022101220323F8
:103F8000402607154FF0070A4FF0006BC4453ED19D
:103F9000D9F8008048F01008C9F80080D9F800C0AE
:103FA0000CF0100CCDF814C0D0F800C04CF0010C8F
:103FB000C0F800C0006800F00100059058028DE8CC
:103FC0000F0469465E48FEF717FBDFF87C815D4908
:103FD0004046C0E90265C0E90475C8F81850C0E958
:103FE000001BB102C8E907510421C8F82410FEF7EC
:103FF000D5F908B1FDF726FCC4F83080002211463F
:104000002520C8F83840FFF7DFF8252048E0DFF822
:104010003C81C44549D1D9F8008048F02008C9F84E
:104020000080D9F800C00CF0200CCDF814C0D0F8F6
:1040300000C04CF0040CC0F800C0006800F00400A0
:104040000590C0208DE80F00082004906946404884
:10405000FEF7D2FA3B49DFF8FC8018394046C8F831
:1040600000104FF02061C8F80410C0E90265C0E9F3
:104070000475C8F81850C8F81C50C8F82050C8F883
:104080002450FEF78BF908B1FDF7DCFBC4F8308053
:10409000002211464720C8F83840FFF795F847201E
:1040A000FFF784F807B0BDE8F08FDFF8AC80C445B7
:1040B000F8D1DFF888C0ACF1040CDCF8008048F4DB
:1040C0000038CCF80080DCF800C00CF4003CCDF8DF
:1040D00014C0D0F800C04CF0080CC0F800C0006854
:1040E00000F00800059060208DE80F0469461B4829
:1040F000FEF782FADFF86C8019494046C0E9026594
:10410000C0E90475C8F81850C8F81C50C8F8205009
:10411000C8E9001BC8F82450FEF740F908B1FDF7C4
:1041200091FBC4F83080002211462620C8F83840A0
:10413000FFF74AF82620B3E7001001404438024058
:1041400000000240B8640240486F002000140140A3
:10415000000802400870002000440040000C0240AB
:10416000A0600240A86F002090F83A30202B22D1A6
:10417000F9B1F2B190F83830012B1CD08162828500
:10418000C2850021C163222280F83A2080F83810CD
:104190000168CA6842F48072CA6001684A6942F0E4
:1041A00001024A610068C16841F02001C16000203D
:1041B0007047012070470220704700000E4930B45C
:1041C000A1F10A020B78116E0C4C0C44491C1166CB
:1041D0002370116E0023402900D11366916E491C93
:1041E0009166402902D193660121117330BC0122EE
:1041F0000149FFF7B9BF00000A000020A4240020F5
:10420000F7B5044690F83900202831D1019969B3F7
:1042100062B394F8380001282AD0012084F83800CD
:104220002162A284E2840025E563212084F839001C
:10423000236B1048D863236B0F481864236B0F4817
:10424000D864206B134605652668206B321DFEF787
:104250000FF921686FF04000086084F8385020683A
:10426000416941F0800141610020FEBD0120FEBD99
:104270000220FEBD2F7300085D730008E572000880
:1042800070477047FEE701684A69D24352050FD470
:104290006FF480624A61002140F8301F202242738F
:1042A0008173026942F004020261017301207047C8
:1042B000002070472DE9F84F0446C06A1D4693461A
:1042C0000F4621680A6842F480620A60082807D015
:1042D000012805D010F5803F02D0206B112804D1B1
:1042E0002068016841F4807101604FF001195B465C
:1042F000002249462046009500F0C6F84FF40078A9
:1043000040B120680068C00501D5C4F84080032092
:10431000BDE8F88F2069DFF884A0B0F5804F0FD09A
:104320000620216800EAD71646F0F00008612B4607
:104330005A460AF10601204600F0DAF858BB03E0BD
:10434000F8B240F001001CE02168F8B208612B4689
:104350005A465146204600F0CBF8E0B92068416942
:1043600081690091016841F4807101605B4600221F
:1043700049462046009500F087F80028C1D146F054
:10438000F100216808612B465A465146204600F04C
:10439000AFF80028BCD00120BAE7000002000100FD
:1043A000F8B50446C06A1E460D461746082807D0D1
:1043B000012805D010F5803F02D0206B122804D1CF
:1043C0002068016841F480710160134600224FF0BB
:1043D00001112046009600F057F840B120680068AF
:1043E000C00502D54FF4007020640320F8BD206999
:1043F000B0F5804F0ED00620216800EAD51040F0BD
:10440000F000086133463A460B49204600F070F848
:1044100078B902E005F0FE0000E0E8B2216808612A
:10442000054933463A46891F204600F061F80028C6
:10443000DCD00120F8BD00000800010070B5164670
:104440000D4604460DE02046FFF71DFF08B1012090
:1044500070BD681C05D0FEF7A3F9801BA84207D8E1
:1044600035B120684069C0434007ECD4002070BDDE
:10447000002044F8300F20216173A073216941F0BE
:10448000200121612073E2E72DE9F0471D469046A7
:104490000E460446C1F30747DDF8209008E0681C8B
:1044A00006D0FEF77DF9A0EB0900A8420FD875B140
:1044B0002068012F18D0806926EA00000004000C53
:1044C00014D000204045EAD00020BDE8F08700204D
:1044D00044F8300F20216173A073216941F020015D
:1044E000216120730120F0E74069E5E70120E9E759
:1044F0002DE9F047984615460E4604464FF0000950
:104500004FF0200AC1F3074723E020684069C04309
:10451000400515D42068016841F4007101602168EC
:104520006FF480604861C4F8309084F83DA084F84E
:104530003E90216C41F00401216484F83C901EE01F
:10454000681C06D0FEF72CF9A0EB0800A8420AD898
:104550004DB12068012F15D0806926EA00000004C3
:10456000000C0DD0D1E744F8309F84F80DA084F8FA
:104570000E90216941F02001216184F80C90012006
:10458000BDE8F0874069E8E72DE9F04116460D46A1
:10459000044600274FF0200817E04069C043C006DA
:1045A0000DD454F8301B6FF01000486144F80D7BB7
:1045B00004F81D89A777206A2062277717E0FEF7A5
:1045C000EFF8801BA84208D83DB120684169C94373
:1045D0004906E2D40020BDE8F08144F8307F84F839
:1045E0000D80A773206940F020002061277301200F
:1045F000F1E770B516460D4604460DE02046FFF77C
:1046000042FE08B1012070BD681C05D0FEF7C8F855
:10461000801BA84207D835B120684069C043000616
:10462000ECD4002070BD002044F8300F20216173CD
:10463000A073216941F0200121612073E2E70000AD
:104640002DE9F0478046002402F00CFC01F0C6FD85
:1046500002F0C6FA1D4F08F001004FF400494FF474
:104660000056C8F3400508B1012200E00022494687
:104670003846FEF790F8012231463846FEF78BF8AF
:104680000120FDF75BF8002231463846FEF783F83B
:104690000120FDF753F8641CA4B228460A2CE2D38B
:1046A000002249463846FEF776F8FDF7CDF803F0CC
:1046B000CBF801F093FD02F047FA2020FDF704FB50
:1046C000BDE8F047014602A005F0E2B80004024050
:1046D0004A5441475F49443A00000000002210213B
:1046E0000148FEF758B800000010024001221021D6
:1046F0000148FEF750B800000010024010B5044613
:10470000FFF7ECFF200A04F019FFE0B204F016FFF7
:10471000002004F013FF012004F010FF002000F03F
:1047200005F80446FFF7E2FF204610BD04F006BF7F
:1047300070B50D460446FFF7D1FF200A04F0FEFED7
:10474000E0B204F0FBFE802004F0F8FE012004F04B
:10475000F5FE284604F0F2FEFFF7C8FF012070BD09
:10476000F0B5002302EBC30400264FF0FF35C4E987
:1047700002565B1C022BF5D300241460224601EB89
:10478000C20341F822504FF0FF36E3E92066C3E947
:10479000C0668B18521C83F88044202AEFD3C1F8DE
:1047A000A04400214FF480524454491C9142FBD351
:1047B00000F5805100F580530C604C600021C3E986
:1047C0000211C3E9041118469961C161F0BD0000EE
:1047D0002DE9F04FDFF8188400232DED028B83B014
:1047E00082468DF80430B8F81E4014B904F077FA08
:1047F0000446FF4DA8F81E30FE4999468035C8F89A
:104800007C309FEDFD8ADFF8F4B368690126ABF1D7
:10481000E90E884203DCB8F820009D2823D988F8E7
:10482000119085ED058AC8F8789088F80F9088F87F
:104830001090C5E90096AE6088F8129088F8139041
:1048400088F81490ED4AC5F80C902021C5F8109016
:10485000C8328BF800104846117088F8160088F8A6
:104860001500A8F82000AEE0D8F87C2043461AF8DE
:1048700002007E2823D1587C08BB5E7485ED058A32
:10488000C3F8789083F80F9083F81090C5E90096EC
:10489000AE6083F8129083F8139083F81490D74F8A
:1048A000C5F80C902021C5F81090C8378BF800107F
:1048B000397083F81690484683F815901884996FDC
:1048C0001AF802000EF801001F8C7F1C1F843B2881
:1048D00004D03D280BD03A2809D00CE05F7DC7B941
:1048E0005F7C012F15D183F811901E740DE09F7C21
:1048F0000FB99E749E752E2802D0242807D008E098
:10490000DF7C37B95F7D27B9DE749E7501E01F7DBE
:1049100037B102293CD99EF80270202F03D037E02E
:1049200002271F75F1E79F7D8FBB1F7D022F2FD2BE
:104930009F7C012F0BD0DFF8C4C22F68ACF1200C94
:10494000202F0CF807002AD27F1C2F6027E0DF7C85
:1049500027B1012F0FD02FB113D020E0D5F804C01C
:104960000BF80C006868C82819D2401C68602869D8
:10497000401C286113E0A14FD5F808C0C83707F8DC
:104980000C00A868C8280AD2401CA86007E0FFE70E
:104990001F7D022F03D19F7D0FB9E8601E75D5E9F9
:1049A0000307874202D2187D012814D083F815909E
:1049B000C82901D2491C9967C82A01D2521CDA675A
:1049C00088F81690641E002C7FF44EAF98F8100003
:1049D000012802D077E35E75EAE79EF800107E2991
:1049E00005D198F80F1041F0010188F80F109EF8DA
:1049F000010098F80E107746884205D198F80F000C
:104A000040F0020088F80F0098F80F0003287DD1CD
:104A10007A487BA12038FBF735FC002877D077480F
:104A200079A12038FBF72EFC002871D073487AA1B9
:104A30002038FBF727FC00286BD0704879A120387C
:104A4000FBF720FC00287DD06C4879A12038FBF7CB
:104A500019FC002877D0694878A12038FBF712FCB0
:104A6000002871D0654878A12038FBF70BFC00289E
:104A70006BD0624877A12038FBF704FC00287CD07B
:104A80005E4877A12038FBF7FDFB002876D05B4815
:104A900075A12038FBF7F6FB002870D0574874A1A9
:104AA0002038FBF7EFFB00286AD0544872A1203869
:104AB000FBF7E8FB00287DD0504870A12038FBF7B9
:104AC000E1FB002877D04D486DA12038FBF7DAFBD9
:104AD000002871D049486CA12038FBF7D3FB6B4EFE
:104AE00000286AD045486AA12038FBF7CBFB002894
:104AF00070D0424869A12038FBF7C4FB00286AD077
:104B00003E4869A12038FBF7BDFB03E029E216E12E
:104B10001BE125E100285FD0384865A12038FBF76C
:104B2000B1FB002859D0354863A12038FBF7AAFB18
:104B3000002853D0314862A12038FBF7A3FB00289E
:104B40004DD003E016E11EE138E146E12B485FA1BC
:104B50002038FBF797FB002842D028485DA1203879
:104B6000FBF790FB00283CD024485DA12038FBF7E0
:104B700089FB0A26002835D003E044E153E163E1D4
:104B80006DE11E485AA12038FBF77CFB00282AD093
:104B90001A485AA12038FBF775FB002824D0174883
:104BA00059A12038FBF76EFB00281ED013483CA10A
:104BB000203803E060E16CE178E185E1FBF762FB1E
:104BC000002813D00D4853A12038FBF75BFB0028C9
:104BD0000DD0A1E08BE197E19FE1B4E1C2E1D7E123
:104BE000E3E1E4E1F7E111E224E23EE24BE24EE2EE
:104BF000000000200000484200000000F62A0020CB
:104C0000766572736979610072733438355F7465E3
:104C100073745F4F4B00000072733438355F7465F6
:104C20007374000072733438355F68656C7000000F
:104C30007370695F77726974650000004A54414778
:104C40005F545354000000004A544147325F5343BD
:104C5000414E00004A544147315F5343414E0000EA
:104C60004A5441475F494400426174504700000084
:104C700074696D65000000006D656D004D5347005F
:104C800049445F53455256006E7373000010024052
:104C90006574685F696E6974000000007379735F02
:104CA000696E666F000000006932635F61647200C4
:104CB0007374617274000000707772646E0000009B
:104CC0004144435F746573740000000068656C7054
:104CD000000000006932635F7374617475730000D3
:104CE0006932635F7472616E736D697400000000F5
:104CF0006932635F726563697665000044533433DB
:104D000030365F72656164004C45445F444434341E
:104D10000000000052534300EBA1ED48FBF7B2FA4C
:104D200000286ED0EBA1EA48FBF7ACFA002869D066
:104D3000ECA1E748FBF7A6FA002873D029E3EBA023
:104D400002F06CFA01F006FA23E3EDA0D8F8441063
:104D500004F0D0FCF0A002F061FA88F8036018E3D8
:104D6000F6A0D8F8441004F0C5FC98F84400FCF70D
:104D7000BFF80EE3F6A0D8F8441004F0BBFCF9A08D
:104D800002F070FA05E3D2482030FBF789FAC8F840
:104D90004400CF48E830FBF783FAC8F84000D8F861
:104DA0004420022101EB0211C8F844100246C9B2A6
:104DB00000232020FCF76DFDEDA065E1C448203004
:104DC000FBF76EFAC8F84400EFA002F027FAF3A050
:104DD00002F024FA02F066F8DBE2BD482030FBF76F
:104DE0005FFAC8F84400EEA002F018FAEBA002F057
:104DF00015FA0020D8F8441003F0AEFBC8F84400C0
:104E0000C7E24BE151E1B2482030FBF749FAC8F85C
:104E10004400E3A002F002FAE0A002F0FFF900F083
:104E200005FBB6E247E1AA482030FBF739FAC8F89B
:104E30004400E0A002F0F2F9D8A002F0EFF998F8EF
:104E40004400FFF7FDFBA4E20021DEA004F052FCC9
:104E5000FCF74CFC0146C8F84400DEA028E19C4861
:104E60002030FBF71DFAC8F84400D5E90A23DCA07E
:104E700004F058FCDBA007E195482030FBF710FA5E
:104E80000146C8F84400D8A004F034FC00F0F8FF54
:104E90007FE28F482030FBF703FA0146C8F8440050
:104EA000D4A004F027FC00F0F5FB72E28848203023
:104EB000FBF7F6F90146C8F84400D1A004F01AFC4B
:104EC000D34801F0F7FB64E281482030FBF7E8F9B2
:104ED0000146C8F84400CFA004F00CFCD8F8440008
:104EE000012802D0002210214CE00122FBE7784883
:104EF0002030FBF7D5F90146C8F84400C8A004F0FB
:104F0000F9FB01F0B1FC44E271482030FBF7C8F92D
:104F10000146C8F84400C7A0CAE06D482030FBF73E
:104F2000BFF90146C8F84400C7A004F0E3FBB8F895
:104F300044004FF47A7381B20122C748FDF714FD93
:104F40000146C6A0B4E062482030FBF7A9F901464B
:104F5000C8F84400C3A004F0CDFB98F8440088F8DA
:104F6000080016E25A482030FBF79AF90146C8F8C3
:104F70004400C0A004F0BEFBD8F84400012805D0CE
:104F8000002280213046FDF706FC02E20122F8E70C
:104F90004F482030FBF784F90146C8F84400B9A017
:104FA00004F0A8FBFBF72AFEF3E1BBA077E0BEA06C
:104FB00002F034F946482030FBF772F981B2C8F8A4
:104FC00044000A230122A448FDF7CEFC08B1BBA08F
:104FD0005AE0BDA058E0BFA002F020F93C482030C4
:104FE000FBF75EF9C8F844003948E830FBF758F998
:104FF000C8F840008DF804000096B8F8440001237A
:1050000081B201AA9448FDF799FFC2E1B7A002F06E
:1050100005F92F482030FBF743F9C8F8440081B266
:10502000012301AA8C480096FDF754FD9DF8041059
:10503000B3A017E0B4A002F0F1F825482030FBF748
:105040002FF9C8F844002248E830FBF729F9C1B22B
:10505000C8F8400098F84400FCF70CFB8DF80400F9
:105060000146AFA004F014FC93E119482030FBF78F
:1050700017F9C8F84400ACA002F0D0F898F8440042
:1050800000F0D6FA85E1ADA002F0C8F881E1AFA04A
:1050900002F0C4F8012000F0A3FF7AE1AFA002F013
:1050A000BDF8002000F0FAFC73E1B0A0D8F8381089
:1050B00004F020FB6DE106482030FBF7F1F80146D3
:1050C000C8F844005EE19EE16D656E750000000069
:1050D000D62A002053686F775F776F726B74696DA3
:1050E000650000004D53475F41445200EFF0E8ED8A
:1050F000FFEB20766572736979610D0A000000008C
:10510000EFF0E8EDFFEB2072733438355F746573B0
:10511000745F4F4B3A000000F2E5F1F2203438356D
:1051200020F8E8EDFB20EFF0EEE9E4E5ED20F3F107
:10513000EFE5F8EDEE210D0A00000000EFF0E8EDDC
:10514000FFEB2072733438355F746573743A000076
:10515000EFF0E8EDFFEB2072733438355F68656C73
:10516000703A00007E302068656C703B00000000E3
:10517000EFF0E8EDFFEB2046504741207370695F88
:1051800077726974650D0A00EFF0E8EDFFEB204AD5
:105190005441475F5453540D000000000D000000BF
:1051A000EFF0E8EDFFEB204A5441475F5343414E97
:1051B0000D000000EFF0E8EDFFEB204A5441475F9F
:1051C00049440D00EFF0E8EDFFEB204261745047D9
:1051D0003A000000504F5745525F474F4F443A0046
:1051E0005B0000005D0D0A00EFF0E8EDFFEB206DC5
:1051F000656D3A00EFF0E8EDFFEB204D53473A00C4
:10520000EFF0E8EDFFEB2049445F534552563A007A
:10521000C0690020EFF0E8EDFFEB206E73733A00F9
:10522000EFF0E8EDFFEB206574685F696E69743A32
:1052300000000000EFF0E8EDFFEB207379735F6989
:105240006E666F3A00000000EFF0E8EDFFEB2069BA
:1052500032635F6164723A00F40100206932633A9C
:1052600000000000EFF0E8EDFFEB20737461727452
:105270003A000000EFF0E8EDFFEB20707772646E0B
:105280003A000000EFF0E8EDFFEB204144435F748B
:105290006573743A00000000EFF0E8EDFFEB206862
:1052A000656C700D0A000000EFF0E8EDFFEB20697F
:1052B00032635F7374617475730D0A006932635FE2
:1052C0006572726F720D0A006932635F4F4B0D0A8F
:1052D00000000000EFF0E8EDFFEB206932635F743F
:1052E00072616E736D69740D0A000000EFF0E8EDF5
:1052F000FFEB206932635F7265636976650D0A00B2
:10530000646174613D000000EFF0E8EDFFEB2044C4
:1053100053343330365F726561640D0A000000005B
:10532000636F64653A000000EFF0E8EDFFEB204C9E
:1053300045445F444434340D0A000000EFF0E8EDCA
:10534000FFEB20696E666F0D0A000000EFF0E8EDDC
:10535000FFEB205253430D0A00000000EFF0E8ED90
:10536000FFEB206D656E750D0A000000EFF0E8EDB3
:10537000FFEB2053686F775F776F726B74696D65B1
:105380003A00000023A004F0B5F964212548FCF799
:105390005FFC254849460155641C202CFBD30020A6
:1053A0005A461154401CC828FBD31F4B0020E83339
:1053B0001954401CC828FBD300203C462154401CF3
:1053C000C828FBD385ED058A88F81110C8F8781035
:1053D00088F80F1088F810102960696088F812109A
:1053E000A96088F81310C8F87C1088F81410E960D8
:1053F000296188F8161088F8151020208BF8000015
:105400001870A8F82010D8F8400003B0BDEC028B4B
:10541000BDE8F08FEFF0E8EDFFEB204D53475F4123
:1054200044523A00E0000020D62A00202DE9F04145
:10543000002401F017FD00F0D1FE01F0D1FB4FF484
:105440000047154EBD10012239463046FDF7A3F93D
:10545000012229463046FDF79EF90120FCF76EF93E
:10546000002229463046FDF796F90120FCF766F93F
:10547000641CA4B2FF2CE6D9FCF7E6F902F0E4F9CB
:1054800000F0ACFE01F060FB00F0CCFEBDE8F041A6
:10549000014602A004F02EB9000402404A544147DC
:1054A00020434841494E3A002DE9F05F534C544E99
:1054B000544DE06C4FF001094FF400474FF4804821
:1054C00064282BD2606D48BB012239462846FDF77F
:1054D00062F90022B9102846FDF75DF90022414625
:1054E0002846FDF758F9012000F0A2F8002000F04E
:1054F00099F8012000F08AF8002000F08DF80122D0
:1055000039463046FDF747F9002241463046FDF75F
:1055100042F9C4F85490A06A4000A062E06C4FF4D5
:10552000007A4FF4807BC82828D9A06D30BB0022B8
:1055300039462846FDF72FF9012251032846FDF789
:105540002AF9002241462846FDF725F9002000F0FF
:105550006FF8012000F066F8002000F057F80120F5
:1055600000F05AF8012251462846FDF714F90022AE
:1055700059462548FDF70FF9C4F85890E06CB0F58E
:10558000C87F31D900223946A9462846FDF703F9DC
:1055900000224FF400514846FDF7FDF80122454630
:1055A00041464846FDF7F7F8012000F041F8002099
:1055B00000F038F8002000F029F8012000F02CF865
:1055C000002239463046FDF7E6F8012229463046EA
:1055D000FDF7E1F8002251464846FDF7DCF80122CC
:1055E00059460948FDF7D7F8E06CB0F5FA7F03D9C2
:1055F0000020E0646065A065BDE8F09F0000002029
:10560000000C02400008024000000240C007820E69
:105610000121B020FCF74EB8C007820E0121AE2058
:10562000FCF748B8C007820E0121A820FCF742B859
:10563000C007820E0121AA20FCF73CB8FEB5134F2B
:10564000064600253C6B1346A7F18000972A04D03C
:10565000982B04D0992B04D006E0C07802E0407962
:1056600000E00079FBF7FAFB084904201831BA6A18
:105670008DE8070040F26310444305482A4600EBDA
:105680000411304601F080F8FEBD000080000020CB
:10569000382D00202DE9F041002518A001F0BEFDB5
:1056A000DFF868800027294619A004F023F840F2AB
:1056B000631005FB00F108EB011617A0B16A04F0B6
:1056C00019F800240EE0214618A004F013F804EBAA
:1056D000440000EBC40006EBC000416B18A004F0CE
:1056E00009F8641CD6E90A12611A77EB0200EAD3C2
:1056F0006D1C022DD7D3BDE8F08100002D2D2D2D7E
:105700002D2D2D2D2D2D0D0A00000000382D0020EF
:1057100053454E4445523A00D7E8F1EBEE20EAE219
:10572000E8F2E0EDF6E8E93A00000000EDEEECE525
:10573000F020EAE2E8F2E0EDF6E8E83A00000000E6
:10574000434D443A000000007FB500241148009406
:10575000019402940E490394C0E9001401250561E7
:105760008460057680F820400B49C0E90A140521C1
:10577000C460C16180F830504561FCF72DFCCDE973
:105780000045694603480294FCF7CCFA7FBD00004F
:1057900000200140AC0100200100000F1D4808B5A9
:1057A000016841F480010160016801F48001009109
:1057B000016841F4001101600068002200F400104B
:1057C000009011463820FDF7FFFC3820FDF7EEFC75
:1057D000002211463920FDF7F7FC3920FDF7E6FCE1
:1057E000002211464520FDF7EFFC4520FDF7DEFCC9
:1057F000002211464620FDF7E7FC4620FDF7D6FCC7
:10580000002211461120FDF7DFFCBDE80840112001
:10581000FDF7CCBC303802402DE9F04F87B01421A1
:105820006846FAF71DFD6D480024016841F0040147
:105830000160016801F004010591016841F0010176
:105840000160016801F001010591016841F0020168
:105850000160016801F002010591016841F0100149
:105860000160016801F010010591016841F0080133
:1058700001600068012500F0080005904FF46340C6
:105880000090CDE90154DFF8588169464046039401
:10589000FCF7B2FE40F289600090CDE90154DFF8D8
:1058A00044B1694658460394FCF7A6FE4BF201202A
:1058B0000090CDE90154DFF830A1694650460394C9
:1058C000FCF79AFE4CF293700090CDE90154DFF89A
:1058D0001C91694648460394FCF78EFE0827444E07
:1058E0000097CDE9016469464846FCF785FE4020F3
:1058F000CDE90006694602944046FCF77DFEB520DE
:105900008DE8310069464046FCF776FE40F22130D2
:10591000CDE90004694650460294FCF76DFE4FF451
:1059200088700090CDE90154324D694628460394B1
:10593000FCF762FE0E20CDE9000469462846029479
:10594000FCF75AFE4FF40840CDE90004694658467A
:105950000294FCF751FE4FF49050CDE900046946E3
:1059600048460294FCF748FE0097CDE90164694679
:105970004846FCF741FEA814CDE9000669460294AA
:105980005046FCF739FE0220CDE900066946029434
:105990005846FCF731FE002211460720FDF714FCA3
:1059A0000720FDF703FC002211460920FDF70CFC3F
:1059B0000920FDF7FBFB002211461720FDF704FC30
:1059C0001720FDF7F3FB002211462820FDF7FCFB12
:1059D0002820FDF7EBFB07B0BDE8F08F3038024020
:1059E000000802400010024000040240000C024087
:1059F00000001110000002400C480B494FF48022B7
:105A000001604FF48271416000218160C1600161D9
:105A1000C0E905121022C0E90721416281620A2112
:105A2000C162FDF7F1BE00000030014048020020D5
:105A30000C480B494FF4007201604FF482714160D1
:105A400000218160C1600161C0E905120822C0E93E
:105A50000721416281620A21C162FDF7D5BE0000C3
:105A600000340140F80200200A4809492022016060
:105A7000002141608160C16001614161C0E906129D
:105A80000162416281620A21C162FDF7BDBE000070
:105A90000050014050030020FEE7000010B5002434
:105AA00042A001F0BBFB641C142CF9DB002440A0D5
:105AB00001F0B4FB641C142CF9DB3CA001F0AEFB3C
:105AC0003CA001F0ABFB39A001F0A8FB44A001F021
:105AD000A5FB45A001F0A2FB46A001F09FFB4DA055
